:100000000C9434000C9451000C9451000C94510049
:100010000C9451000C9451000C9451000C9451001C
:100020000C9451000C9451000C9451000C9451000C
:100030000C9451000C9451000C9451000C945100FC
:100040000C9451000C9451000C9451000C945100EC
:100050000C9451000C9451000C9451000C945100DC
:100060000C9451000C94510011241FBECFEFD8E026
:10007000DEBFCDBF11E0A0E0B1E0E0ECF5E002C0F2
:1000800005900D92A838B107D9F711E0A8E8B1E0C2
:1000900001C01D92AA39B107E1F70E9453000C94E8
:1000A000DE020C9400000F931F930E94C30080E0B7
:1000B00091E00E94F3008DE091E00E94F3008CE259
:1000C00091E00E94F30084E691E00E94F3006FEF5C
:1000D0007FEF8FEF9FEF0E94CF008CE70E94D80048
:1000E00060E070E080E090E00E94CF008CE70E942A
:1000F000D80061E070E080E090E00E94CF008CE7E3
:100100000E94D80062E070E080E090E00E94CF00A2
:100110000DE611E0C8010E94F30080E791E00E9423
:10012000F3006FEF7FEF8FEF9FEF0E94E1008CE70E
:100130000E94D80060E070E080E090E80E94E1005A
:100140008CE70E94D8006FEF7FEF8FEF9FE70E9450
:10015000E1008CE70E94D8006FEF7FEF8FEF9FEFF9
:100160000E94EA008CE70E94D8006FEF7FEF8FEFCC
:100170009FEF0E94FC00C8010E94F30080E090E025
:100180001F910F91089589E791E00E9452010E940A
:10019000CA00089590938901809388010895E091A1
:1001A0008801F09189010190F081E02D0995089571
:1001B000E0918801F09189010280F381E02D099599
:1001C0000895E0918801F09189010480F581E02D86
:1001D00009950895E0918801F09189010680F781E1
:1001E000E02D09950895E0918801F091890100843E
:1001F000F185E02D09950895E0918801F09189013C
:100200000284F385E02D09950895E0918801F0912D
:1002100089010484F585E02D099508951092C500A3
:1002200087E68093C400E1ECF0E080818860808301
:10023000E2ECF0E08081866080830895982F8091C1
:10024000C00085FFFCCF9093C6000895611571052D
:100250008105910511F496E401C094E58091C000F8
:1002600085FFFCCF9093C6000895982F8091C00021
:1002700085FFFCCF9093C6000895FC0107C08091D4
:10028000C00085FFFCCF31969093C60090819923E2
:10029000B1F708958091C00085FFFCCF8AE080937C
:1002A000C600089580918A0190918B01A0918C01E4
:1002B000B0918D010097A105B10571F40E940E0166
:1002C00081E090E0A0E0B0E080938A0190938B0100
:1002D000A0938C01B0938D018AE791E00895EF928D
:1002E000FF920F932EE8E22E21E0F22EA70120E0EC
:1002F00030E000E10E94A401C7010E943D010F917E
:10030000FF90EF900895EF92FF920F933EE8E32E57
:1003100031E0F32EA70120E030E00AE00E94A401C2
:10032000C7010E943D010F91FF90EF9008950F9338
:100330001F930EE811E0A8010E947E02C8010E94EE
:100340003D011F910F9108952F923F924F925F921E
:100350006F927F928F929F92AF92BF92CF92DF92D5
:10036000EF92FF920F931F93DF93CF93CDB7DEB73A
:100370002D970FB6F894DEBF0FBECDBF69837A8389
:100380008B839C835E834D833D872C870F830A304C
:1003900041F4612C2AEC722E2AE9822E2BE3922E54
:1003A00007C020E12F83612C712C812C90E1992EC4
:1003B00089819A81AB81BC810097A105B10561F467
:1003C000ED81FE81AC85BD85EA0FFB1F80E3808354
:1003D0001196BD87AC8771C02224332421013F814F
:1003E000232F30E040E050E0288739874A875B8739
:1003F00069817A818B819C81A40193010E94BC0256
:1004000059016A01211431044104510429F4A11451
:10041000B104C104D10469F14F814A3079F4ED810E
:10042000FE818C859D85E80FF91F8A2D805D808374
:10043000AC85BD851196BD87AC8716C0BAE0AB16FA
:10044000B104C104D10418F08A2D895C02C08A2D40
:10045000805DED81FE812C853D85E20FF31F808359
:100460002F5F3F4F3D872C8781E0282E312C412C78
:10047000512CC401B301288539854A855B850E94CA
:10048000BC0279018A01E114F10401051105A9F00A
:10049000C601B501A40193010E949D0229813A8100
:1004A0004B815C81261B370B480B590B29833A8300
:1004B0004B835C83370148019BCF4D815E818C85E6
:1004C0009D85480F591FDA011C922D960FB6F8949E
:1004D000DEBF0FBECDBFCF91DF911F910F91FF9077
:1004E000EF90DF90CF90BF90AF909F908F907F90D4
:1004F0006F905F904F903F902F9008950F931F93B0
:100500008B019C01DA0197FD03C0E0E0F0E00BC035
:100510008DE28C9330952095109501951F4F2F4FAC
:100520003F4FE1E0F0E0C901B801AD019F010AE0F1
:100530000E94A4011F910F910895629FD001739FA3
:10054000F001829FE00DF11D649FE00DF11D929F6F
:10055000F00D839FF00D749FF00D659FF00D9927AE
:10056000729FB00DE11DF91F639FB00DE11DF91FD2
:10057000BD01CF0111240895A1E21A2EAA1BBB1BB5
:10058000FD010DC0AA1FBB1FEE1FFF1FA217B3075F
:10059000E407F50720F0A21BB30BE40BF50B661F75
:1005A000771F881F991F1A9469F760957095809539
:1005B00090959B01AC01BD01CF010895F894FFCF48
:1005C00054657374204F75743A3C320A00426F6F61
:1005D0006C733A205B747275657C66616C73657CC4
:1005E000747275657C747275655D0A00496E74730A
:1005F0003A20205B2D317C2D32313437343833367C
:1006000034387C323134373438333634377C343212
:1006100039343936373239357C46464646464646C1
:10062000465D0A00426F6F6C733A205B005D0A0002
:10063000496E74733A20205B000026013501970152
:0806400083013D016F014A0135
:00000001FF
