:100000000C9434000C9451000C9451000C94510049
:100010000C9451000C9451000C9451000C9451001C
:100020000C9451000C9451000C9451000C9451000C
:100030000C9451000C9451000C9451000C945100FC
:100040000C9451000C9451000C9451000C945100EC
:100050000C9451000C9451000C9451000C945100DC
:100060000C9451000C94510011241FBECFEFD8E026
:10007000DEBFCDBF11E0A0E0B1E0E6E6F5E002C0F2
:1000800005900D92A838B107D9F711E0A8E8B1E0C2
:1000900001C01D92A839B107E1F70E94E9000C9454
:1000A000B1020C9400001092C50087E68093C40052
:1000B000E1ECF0E0808188608083E2ECF0E0808118
:1000C000866080830895982F8091C00085FFFCCFC3
:1000D0009093C6000895611571058105910511F48D
:1000E00096E401C094E58091C00085FFFCCF909319
:1000F000C6000895982F8091C00085FFFCCF909393
:10010000C6000895FC0107C08091C00085FFFCCFA8
:1001100031969093C60090819923B1F7089580910C
:10012000C00085FFFCCF8AE08093C60008958091CF
:10013000880190918901A0918A01B0918B0100976B
:10014000A105B10571F40E94530081E090E0A0E0A8
:10015000B0E08093880190938901A0938A01B093C5
:100160008B018AE791E008950F931F930CE811E04B
:10017000A8010E945102C8010E9482001F910F91A4
:100180000895EF92FF920F932CE8E22E21E0F22ED9
:10019000A70120E030E00AE00E947701C7010E9439
:1001A00082000F91FF90EF900895EF92FF920F93CE
:1001B0003CE8E32E31E0F32EA70120E030E000E13F
:1001C0000E947701C7010E9482000F91FF90EF907B
:1001D000089580E091E00E94970081E091E00E9404
:1001E00082008EE091E00E9482008DE291E00E9408
:1001F000820085E691E00E9482008091C00085FF28
:10020000FCCF84E58093C6008091C00085FFFCCFC1
:100210008CE78093C6008091C00085FFFCCF86E408
:100220008093C6008091C00085FFFCCF8CE780934F
:10023000C6008091C00085FFFCCF84E58093C60096
:100240008091C00085FFFCCF8CE78093C600809131
:10025000C00085FFFCCF84E58093C6008EE691E068
:100260000E94820081E791E00E9482006FEF7FEFA1
:100270008FEF9FEF0E94B4008091C00085FFFCCFFC
:100280008CE78093C60060E070E080E090E80E9418
:10029000B4008091C00085FFFCCF8CE78093C6003E
:1002A0006FEF7FEF8FEF9FE70E94B4008091C00057
:1002B00085FFFCCF8CE78093C6006FEF7FEF8FEF59
:1002C0009FEF0E94C1008091C00085FFFCCF8CE7AA
:1002D0008093C6006FEF7FEF8FEF9FEF0E94D500F6
:1002E0008EE691E00E94820080E090E008952F92D7
:1002F0003F924F925F926F927F928F929F92AF92B6
:10030000BF92CF92DF92EF92FF920F931F93DF93F2
:10031000CF93CDB7DEB72D970FB6F894DEBF0FBEE3
:10032000CDBF69837A838B839C835E834D833D87B6
:100330002C870F830A3041F4612C2AEC722E2AE9B3
:10034000822E2BE3922E07C020E12F83612C712C8B
:10035000812C90E1992E89819A81AB81BC81009793
:10036000A105B10561F4ED81FE81AC85BD85EA0F83
:10037000FB1F80E380831196BD87AC8771C0222468
:10038000332421013F81232F30E040E050E02887D3
:1003900039874A875B8769817A818B819C81A40137
:1003A00093010E948F0259016A0121143104410412
:1003B000510429F4A114B104C104D10469F14F819D
:1003C0004A3079F4ED81FE818C859D85E80FF91F17
:1003D0008A2D805D8083AC85BD851196BD87AC87F5
:1003E00016C0BAE0AB16B104C104D10418F08A2DCE
:1003F000895C02C08A2D805DED81FE812C853D8562
:10040000E20FF31F80832F5F3F4F3D872C8781E0F2
:10041000282E312C412C512CC401B301288539855B
:100420004A855B850E948F0279018A01E114F104FB
:1004300001051105A9F0C601B501A40193010E94AF
:10044000700229813A814B815C81261B370B480B56
:10045000590B29833A834B835C83370148019BCF37
:100460004D815E818C859D85480F591FDA011C9254
:100470002D960FB6F894DEBF0FBECDBFCF91DF91A2
:100480001F910F91FF90EF90DF90CF90BF90AF90B2
:100490009F908F907F906F905F904F903F902F90A4
:1004A00008950F931F938B019C01DA0197FD03C000
:1004B000E0E0F0E00BC08DE28C9330952095109534
:1004C00001951F4F2F4F3F4FE1E0F0E0C901B80108
:1004D000AD019F010AE00E9477011F910F910895DD
:1004E000629FD001739FF001829FE00DF11D649F18
:1004F000E00DF11D929FF00D839FF00D749FF00DA4
:10050000659FF00D9927729FB00DE11DF91F639F44
:10051000B00DE11DF91FBD01CF0111240895A1E225
:100520001A2EAA1BBB1BFD010DC0AA1FBB1FEE1F6D
:10053000FF1FA217B307E407F50720F0A21BB30BB8
:10054000E40BF50B661F771F881F991F1A9469F734
:1005500060957095809590959B01AC01BD01CF0190
:060560000895F894FFCF9E
:100566000054657374204F75743A3C320A00426F2A
:100576006F6C733A205B747275657C66616C73652B
:100586007C747275657C747275655D0A00496E745B
:10059600733A20205B2D317C2D3231343734383399
:1005A6003634387C323134373438333634377C3469
:1005B6003239343936373239357C46464646464630
:1005C60046465D0A00426F6F6C733A205B005D0A17
:1005D60000496E74733A20205B006B007A00B40009
:0805E600C1008200D5008F0066
:00000001FF
