:100000000C9453000C9470000C9470000C947000CD
:100010000C9470000C9470000C9470000C947000A0
:100020000C9470000C9470000C9470000C94700090
:100030000C9470000C9470000C9470000C94700080
:100040000C9470000C9470000C9470000C94700070
:100050000C9470000C9470000C9470000C94700060
:100060000C9470000C947000C101C801CF01D5013F
:10007000F104F104F104F104F104F104F104DE01EE
:10008000E501EE01F501FC0103020A02110218026A
:100090001F0226022D0234023B0242024902500294
:1000A00057025E02650211241FBECFEFD8E0DEBF0B
:1000B000CDBF11E0A0E0B1E0ECE2F1E202C00590BA
:1000C0000D92A635B107D9F711E0A6E5B1E001C060
:1000D0001D92AE3FB107E1F70E945E010C949410AF
:1000E0000C940000CF93DF93EC0143E050E013C089
:1000F000E091F801F091F901E20FF31FDE01A40F86
:10010000B51F8C9180832F5F3F4F30935701209311
:1001100056014F5F5F4F888190E04817590744F4BC
:10012000209156013091570183E0273E380704F3B0
:10013000DF91CF9108958091F8019091F90160E0ED
:1001400070E00E94810E8093F8019093F901109263
:1001500057011092560168EE73E00E94810E809361
:10016000F8019093F90108958091F8019091F901B7
:1001700068EE73E00E94810E8093F8019093F9017C
:1001800008958091F8019091F9010E940E058091E7
:10019000F8019091F9010E94950108951F93182F7D
:1001A00083E00E94C805812F0E94C80580E00E945C
:1001B000C8051F91089583E30E94C80580E00E944E
:1001C000C80508958CEC0E94C80580E00E94C8050F
:1001D0000895AF92BF92CF92DF92EF92FF920F936A
:1001E0001F93CF93DF936C010E948E01F6018083F1
:1001F000A82EBB24C601B5010E94810EEC016C0142
:10020000EE24FF2401E010E00DC00E948E01FE01EB
:10021000E00FF11F80830130110511F0E80EF11C91
:100220000F5F1F4FA016B10684F789818E1571F4F8
:100230000E94E200CE01DF91CF911F910F91FF90BC
:10024000EF90DF90CF90BF90AF9008950E94DB00B9
:10025000CBCFCF93DF93CE0163E070E00E94810E9D
:100260000E94E900EC018A81833261F0843228F433
:10027000813269F0823279F71BC08432A9F085326D
:1002800051F719C0809102010E94CE00E4CF809105
:10029000F8019091F90168EE73E00E94810E80935D
:1002A000F8019093F901D7CFCE010E947200D3CF0D
:1002B0000E94C100D0CF0E949B00CDCF0E9475014B
:1002C0008091F8019091F90168EE73E00E94810E2F
:1002D0008093F8019093F901109257011092560102
:1002E0000E94290180E090E0089583E091E00E945F
:1002F00068050E94BA050E947E0108951092C5000B
:1003000087E68093C400E1ECF0E080818061808327
:10031000E2ECF0E080818660808308958091C000E7
:1003200087FFFCCF8091C60008952F923F924F9295
:100330005F926F927F928F929F92AF92BF92CF9275
:10034000DF92EF92FF920F931F93DF93CF9300D032
:1003500000D0CDB7DEB7C8C2802F81508F3208F0F1
:10036000BBC0802F90E0FC013197EF31F10508F020
:1003700038C3EC5CFF4FEE0FFF1F0590F491E02DAA
:10038000099480915C0190915D010E942E0723C029
:1003900080915C0190915D010E94BB0703C1809137
:1003A0005C0190915D010E94F70B80915C0190913E
:1003B0005D010E942E077C836B8313C380915C01D7
:1003C00090915D010E94E007FDC080915C019091D9
:1003D0005D010E94FC072B813C8137C280915C014A
:1003E00090915D010E942708DDC080915C01909191
:1003F0005D010E945208E6C080915C0190915D0110
:100400000E947D08E8CF80915C0190915D010E947F
:100410009C08C8C080915C0190915D010E94B70862
:10042000D1C080915C0190915D010E94D208D3CF30
:1004300080915C0190915D010E94FD08B3C08091A4
:100440005C0190915D010E942809BCC080915C0113
:1004500090915D010E94B20DBECF80915C019091A0
:100460005D010E9455099EC080915C0190915D01E3
:100470000E948209A7C080915C0190915D010E9459
:10048000AD09A9CF80915C0190915D010E94D809CE
:1004900089C080915C0190915D010E94100A92C018
:1004A00080915C0190915D010E94480A94CF8091F7
:1004B0005C0190915D010E94800A74C080915C0192
:1004C00090915D010E94B80A7DC080915C0190917D
:1004D0005D010E94F00A7FCF802F8053803250F45C
:1004E000803114F08051806F992787FD9095EB81C2
:1004F000FC81D5C1802F80558032B0F4182F803117
:1005000014F01051106F80915C0190915D010E9478
:100510002E07611571058105910509F011E0812F04
:10052000992787FD9095AEC1602F6057603238F4EF
:1005300080915C0190915D010E94280B33C0802F57
:1005400080598830B0F4802F90E0877090708430AC
:1005500091051CF004978C6F9F6FAC01662757FDC7
:100560006095762F80915C0190915D010E941A0741
:1005700029C0802F8859883048F4077080915C0129
:1005800090915D01602F0E94AD0C25CF802F805A85
:10059000883060F4077080915C0190915D01602F5C
:1005A0000E94100D8B819C8101969EC1802F885ADC
:1005B000883060F4077080915C0190915D01602F3C
:1005C0000E945E0DEB81FC8131966BC1003B08F40B
:1005D00008C2093D09F4AEC00A3D40F5043B09F4E8
:1005E00072C0053B80F4013B09F445C0023B20F496
:1005F000003B09F0E2C15DC0023B09F446C0033B89
:1006000009F0DBC14CC0053D09F481C0063D38F45A
:100610000F3B09F461C0043D09F0CFC167C0073D3D
:1006200009F488C0083D09F0C8C1A1C00E3D09F415
:10063000CAC00F3D68F40B3D09F4C5C00B3D08F47A
:1006400096C00C3D09F476C00D3D09F0B6C18FC0CF
:10065000033E09F404C1043E38F4003E09F4F8C036
:10066000013E09F0AAC113C1073E09F41DC10F3FA5
:1006700009F0A3C13CC180915C0190915D01EB81C7
:10068000FC8161810E94100D91C180915C0190916B
:100690005D01EB81FC8161810E945E0D87C18091CB
:1006A0005C0190915D0141E050E060E070E00E94EB
:1006B0001A0780915C0190915D01EB81FC81618161
:1006C0000E94AD0C73C180915C0190915D014FEF70
:1006D0005FEF6FEF7FEFEBCF80915C0190915D0159
:1006E000EB81FC8161810E94930B60C1EB81FC81F5
:1006F0004181552747FD50954E0F5F1F662757FDD7
:100700006095762F80915C0190915D012DC0EB8109
:10071000FC8191808824428150E0482959294E0F5C
:100720005F1F662757FD6095762F80915C01909141
:100730005D0142C0EB81FC818181093D19F4482FA4
:1007400020E002C0282F40E080915C0190915D0183
:10075000093D31F4552747FD5095652F752F04C08D
:10076000422F50E060E070E00E941A071FC1EB8149
:10077000FC81818192810A3D49F4782E6624292FDB
:1007800030E02629372940E050E008C0582E4424A4
:10079000492F50E04429552920E030E080915C0148
:1007A00090915D010A3D31F4A901662757FD6095DE
:1007B000762F02C060E070E00E941A072B813C8116
:1007C0002D5F3F4FF7C02B813C812F5F3F4FF901D9
:1007D0003196DF0111967D010894E11CF11CB18076
:1007E000AA24A501662757FD6095762F407060709A
:1007F000707011968C9190E0A0E0B0E0482B592BDE
:100800006A2B7B2BEB81FC81D180CC24C601AA27EB
:1008100097FDA095BA2F8070A070B070F90101818A
:1008200010E020E030E0802B912BA22BB32BDC01D9
:1008300099278827482B592B6A2B7B2B80915C01A9
:1008400090915D010E941A0797012F5F3F4FB2C040
:10085000EB81FC818181992787FD909520C0809153
:100860005C0190915D010E942E0761157105810563
:10087000910511F082E003C0EB81FC818181992711
:1008800087FD90952B813C81280F391F93C0EB8108
:10089000FC8131802224828190E082299329E80F13
:1008A000F91FFC83EB839DC0EB81FC81F181FA830E
:1008B0001982EB81FC81028110E029813A81022BAF
:1008C000132B3396AF01662757FD6095762F33972C
:1008D000FC83EB8380915C0190915D010E941A077B
:1008E0008B819C81800F911F9C838B837AC0EB81CD
:1008F000FC819181892F8058883008F057C0892F5A
:1009000090E08F7090708330910589F1843091056B
:100910004CF481309105C1F082309105FCF4892BB3
:1009200051F044C086309105B1F187309105E1F175
:100930000597E1F525C080915C0190915D010E94D1
:100940002E070E94BF0532C080915C0190915D012D
:100950000E942E07862F0E94C80528C080915C0146
:1009600090915D010E942E070E94D1051FC08091C9
:100970005C0190915D010E942E070E94DA0516C06D
:1009800080915C0190915D010E942E07DC01CB01FA
:100990000E94E3050BC080915C0190915D010E9473
:1009A0002E070E94EC0502C00E94F5052B813C81B8
:1009B0002E5F3F4F3C832B8314C084E091E00E9464
:1009C000E305602F70E080E090E00E94EC058DE090
:1009D00091E00E94E3050E94F50580E090E00E940E
:1009E0009410EB81FC810081002309F0B5CC0F90BD
:1009F0000F900F900F90CF91DF911F910F91FF906B
:100A0000EF90DF90CF90BF90AF909F908F907F90AE
:100A10006F905F904F903F902F90089510925801E3
:100A20001092590110925A0110925B0180E20E94CB
:100A3000F70690935D0180935C010E94620790939A
:100A40005F0180935E0108951092C50087E6809350
:100A5000C400E1ECF0E0808188608083E2ECF0E0AB
:100A60008081866080830895982F8091C00085FFE3
:100A7000FCCF9093C600089561157105810591051D
:100A800011F496E401C094E58091C00085FFFCCF8D
:100A90009093C6000895982F8091C00085FFFCCFE9
:100AA0009093C6000895FC0107C08091C00085FFA7
:100AB000FCCF31969093C60090819923B1F70895A9
:100AC0008091C00085FFFCCF8AE08093C600089526
:100AD0008091600190916101A0916201B0916301E8
:100AE0000097A105B10571F40E94240581E090E012
:100AF000A0E0B0E08093600190936101A093620157
:100B0000B09363018BE291E00895EF92FF920F930F
:100B100024E6E22E21E0F22EA70120E030E000E101
:100B20000E94FE05C7010E9453050F91FF90EF90B0
:100B30000895EF92FF920F9334E6E32E31E0F32E07
:100B4000A70120E030E00AE00E94FE05C7010E94F4
:100B500053050F91FF90EF9008950F931F9304E6B4
:100B600011E0A8010E94D806C8010E9453051F91F8
:100B70000F91089590937101809370010895E09111
:100B80007001F09171010190F081E02D09950895B7
:100B9000E0917001F09171010280F381E02D0995DF
:100BA0000895E0917001F09171010480F581E02DCC
:100BB00009950895E0917001F09171010680F78127
:100BC000E02D09950895E0917001F0917101008484
:100BD000F185E02D09950895E0917001F091710182
:100BE0000284F385E02D09950895E0917001F0915C
:100BF00071010484F585E02D099508952F923F92A7
:100C00004F925F926F927F928F929F92AF92BF921C
:100C1000CF92DF92EF92FF920F931F93DF93CF93C8
:100C2000CDB7DEB72D970FB6F894DEBF0FBECDBFA0
:100C300069837A838B839C835E834D833D872C8776
:100C40000F830A3041F4612C2AEC722E2AE9822E9D
:100C50002BE3922E07C020E12F83612C712C812C75
:100C600090E1992E89819A81AB81BC810097A10581
:100C7000B10561F4ED81FE81AC85BD85EA0FFB1FF6
:100C800080E380831196BD87AC8771C02224332412
:100C900021013F81232F30E040E050E02887398751
:100CA0004A875B8769817A818B819C81A40193014A
:100CB0000E94440E59016A01211431044104510477
:100CC00029F4A114B104C104D10469F14F814A305F
:100CD00079F4ED81FE818C859D85E80FF91F8A2DC1
:100CE000805D8083AC85BD851196BD87AC8716C0BD
:100CF000BAE0AB16B104C104D10418F08A2D895CA6
:100D000002C08A2D805DED81FE812C853D85E20F3C
:100D1000F31F80832F5F3F4F3D872C8781E0282E74
:100D2000312C412C512CC401B301288539854A85C9
:100D30005B850E94440E79018A01E114F1040105EA
:100D40001105A9F0C601B501A40193010E94250E69
:100D500029813A814B815C81261B370B480B590B4B
:100D600029833A834B835C83370148019BCF4D81B4
:100D70005E818C859D85480F591FDA011C922D9646
:100D80000FB6F894DEBF0FBECDBFCF91DF911F919C
:100D90000F91FF90EF90DF90CF90BF90AF909F901A
:100DA0008F907F906F905F904F903F902F9008951D
:100DB0000F931F938B019C01DA0197FD03C0E0E0C4
:100DC000F0E00BC08DE28C93309520951095019545
:100DD0001F4F2F4F3F4FE1E0F0E0C901B801AD01D7
:100DE0009F010AE00E94FE051F910F910895982F20
:100DF000882339F08FEF8093F3018093F201909371
:100E0000F40182E791E008950895FC01EF57FF4F48
:100E10002081332727FD30952F5F3F4F442737FD33
:100E20004095542FB901CA010895FC01EE57FF4FB8
:100E300080810895DC01AF57BF4FEC91EF5FEC93D9
:100E4000FF27E7FDF095EE0FFF1FEE0FFF1FE80FE6
:100E5000F91F40835183628373830895DC01AF5788
:100E6000BF4F2C91E22FFF27E7FDF095EE0FFF1FFC
:100E7000EE0FFF1FE80FF91F60817181828193815E
:100E800021502C93089520E030E040E050E0FC0138
:100E9000EF57FF4F80818F3F21F421E030E040E0A9
:100EA00050E0B901CA010895FC019093F6018093C6
:100EB000F501EF57FF4F80818F5F8093F70185EF3A
:100EC00091E00895FC019093F6018093F501EF57AE
:100ED000FF4F80818F5F8093F70185EF91E0089548
:100EE0000895FC01228121502283332727FD30956C
:100EF000432F532F2095309540955095222757FD2D
:100F00002395332744275527B901CA010895FC01C9
:100F1000A081B1818281992787FD9095880F991FC3
:100F2000880F991FA80FB91F6C9111967C9111978A
:100F300012968C91129713969C910895FC01A081B2
:100F4000B181AF57BF4F8C918F5F82830895FC01B1
:100F5000EF57FF4F8081E158F040992787FD90952A
:100F6000880F991F880F991FE80FF91F6081718101
:100F7000828193810895BC016F577F4FFB01A0814F
:100F8000EA2FFF27E7FDF095EE0FFF1FEE0FFF1F83
:100F9000E80FF91F2081318142815381AF5FFB014E
:100FA000A083BB27A7FDB095AA0FBB1FAA0FBB1F2D
:100FB000A80FB91F2D933D934D935C9313970895FC
:100FC000FC01EF57FF4F8081E158F040992787FDE2
:100FD0009095880F991F880F991FE80FF91F80813E
:100FE0009181A281B38180959095A095B0958083E1
:100FF0009183A283B3830895DC01AF57BF4F6C91F7
:10100000E62FFF27E7FDF095EE0FFF1FEE0FFF1F06
:10101000E80FF91F2081318142815381E62FE15091
:10102000EC93FF27E7FDF095EE0FFF1FEE0FFF1F7C
:10103000E80FF91F80819181A281B38182239323DC
:10104000A423B52380839183A283B3830895DC0115
:10105000AF57BF4F6C91E62FFF27E7FDF095EE0FDE
:10106000FF1FEE0FFF1FE80FF91F20813181428122
:101070005381E62FE150EC93FF27E7FDF095EE0F4B
:10108000FF1FEE0FFF1FE80FF91F80819181A281E2
:10109000B381822B932BA42BB52B80839183A283C6
:1010A000B3830895DC01AF57BF4F6C91E62FFF2744
:1010B000E7FDF095EE0FFF1FEE0FFF1FE80FF91F82
:1010C0002081318142815381E62FE150EC93FF274B
:1010D000E7FDF095EE0FFF1FEE0FFF1FE80FF91F62
:1010E00080819181A281B38182279327A427B5278C
:1010F00080839183A283B3830895FC01EF57FF4F50
:101100008081E158F040992787FD9095880F991FBD
:10111000880F991FE80FF91F80819181A281B38107
:10112000B095A095909581959F4FAF4FBF4F80830D
:101130009183A283B3830895FC01EF57FF4F808111
:10114000E158F040992787FD9095880F991F880FE7
:10115000991FE80FF91F80819181A281B3810196C7
:10116000A11DB11D80839183A283B3830895FC01E7
:10117000EF57FF4F8081E158F040992787FD909508
:10118000880F991F880F991FE80FF91F808191819F
:10119000A281B3810197A109B10980839183A283C0
:1011A000B3830895DC01AF57BF4F6C91E62FFF2743
:1011B000E7FDF095EE0FFF1FEE0FFF1FE80FF91F81
:1011C0002081318142815381E62FE150EC93FF274A
:1011D000E7FDF095EE0FFF1FEE0FFF1FE80FF91F61
:1011E00080819181A281B381820F931FA41FB51FBB
:1011F00080839183A283B3830895DC01AF57BF4FEF
:101200006C91E62FFF27E7FDF095EE0FFF1FEE0F25
:10121000FF1FE80FF91F2081318142815381E62FA2
:10122000E150EC93FF27E7FDF095EE0FFF1FEE0F67
:10123000FF1FE80FF91F80819181A281B381821B7A
:10124000930BA40BB50B80839183A283B383089582
:10125000CF93DF93DC01AF57BF4F6C91E62FFF2791
:10126000E7FDF095EE0FFF1FEE0FFF1FE80FF91FD0
:10127000208131814281538161506C93C62FDD27DB
:10128000C7FDD095CC0FDD1FCC0FDD1FC80FD91FB8
:10129000688179818A819B810E94250E6883798388
:1012A0008A839B83DF91CF910895CF93DF93DC01F5
:1012B000AF57BF4F6C91E62FFF27E7FDF095EE0F7C
:1012C000FF1FEE0FFF1FE80FF91F208131814281C0
:1012D000538161506C93C62FDD27C7FDD095CC0F8D
:1012E000DD1FCC0FDD1FC80FD91F688179818A816E
:1012F0009B810E94660E688379838A839B83DF913A
:10130000CF910895DC01AF57BF4F3C91E32FFF27EA
:10131000E7FDF095EE0FFF1FEE0FFF1FE80FF91F1F
:101320002081E32FE150EC93FF27E7FDF095EE0FCE
:10133000FF1FEE0FFF1FE80FF91F80819181A2812F
:10134000B38104C0880F991FAA1FBB1F2A95D2F72B
:1013500080839183A283B3830895DC01AF57BF4F8D
:101360003C91E32FFF27E7FDF095EE0FFF1FEE0FF7
:10137000FF1FE80FF91F2081E32FE150EC93FF27B7
:10138000E7FDF095EE0FFF1FEE0FFF1FE80FF91FAF
:1013900080819181A281B38104C0B595A79597956D
:1013A00087952A95D2F780839183A283B38308958A
:1013B0000F931F93DC01AF57BF4F2C91E22FFF27F4
:1013C000E7FDF095EE0FFF1FEE0FFF1FE80FF91F6F
:1013D000408151816281738121502C93E22FFF273C
:1013E000E7FDF095EE0FFF1FEE0FFF1FE80FF91F4F
:1013F00000E010E020E030E080819181A281B381A3
:1014000084179507A607B70721F401E010E020E054
:1014100030E000831183228333831F910F9108955D
:101420000F931F93DC01AF57BF4F2C91E22FFF2783
:10143000E7FDF095EE0FFF1FEE0FFF1FE80FF91FFE
:10144000408151816281738121502C93E22FFF27CB
:10145000E7FDF095EE0FFF1FEE0FFF1FE80FF91FDE
:1014600000E010E020E030E080819181A281B38132
:1014700084179507A607B70721F001E010E020E0E8
:1014800030E000831183228333831F910F910895ED
:101490000F931F93DC01AF57BF4F2C91E22FFF2713
:1014A000E7FDF095EE0FFF1FEE0FFF1FE80FF91F8E
:1014B000408151816281738121502C93E22FFF275B
:1014C000E7FDF095EE0FFF1FEE0FFF1FE80FF91F6E
:1014D00000E010E020E030E080819181A281B381C2
:1014E00084179507A607B70724F401E010E020E071
:1014F00030E000831183228333831F910F9108957D
:101500000F931F93DC01AF57BF4F2C91E22FFF27A2
:10151000E7FDF095EE0FFF1FEE0FFF1FE80FF91F1D
:10152000408151816281738121502C93E22FFF27EA
:10153000E7FDF095EE0FFF1FEE0FFF1FE80FF91FFD
:1015400000E010E020E030E080819181A281B38151
:10155000481759076A077B0724F401E010E020E0F0
:1015600030E000831183228333831F910F9108950C
:101570000F931F93DC01AF57BF4F2C91E22FFF2732
:10158000E7FDF095EE0FFF1FEE0FFF1FE80FF91FAD
:10159000408151816281738121502C93E22FFF277A
:1015A000E7FDF095EE0FFF1FEE0FFF1FE80FF91F8D
:1015B00000E010E020E030E080819181A281B381E1
:1015C000481759076A077B0724F001E010E020E084
:1015D00030E000831183228333831F910F9108959C
:1015E0000F931F93DC01AF57BF4F2C91E22FFF27C2
:1015F000E7FDF095EE0FFF1FEE0FFF1FE80FF91F3D
:10160000408151816281738121502C93E22FFF2709
:10161000E7FDF095EE0FFF1FEE0FFF1FE80FF91F1C
:1016200000E010E020E030E080819181A281B38170
:1016300084179507A607B70724F001E010E020E023
:1016400030E000831183228333831F910F9108952B
:10165000CF92DF92EF92FF920F931F93AC01862FF0
:10166000837011E8C12ED12CC40ED51ED6012C9149
:10167000E22FFF27E7FDF095EE0FFF1FEE0FFF1F94
:10168000E40FF51FE080F18002811381382F320FC3
:10169000E32FFF27E7FDF095EE0FFF1FEE0FFF1F73
:1016A000E40FF51F262F220F220F2074660F68719A
:1016B000262B822B90E0A0E0B0E080839183A28370
:1016C000B3833F5FE32FFF27E7FDF095EE0FFF1F8A
:1016D000EE0FFF1FE40FF51FE082F18202831383F8
:1016E0003F5FF6013083E32FFF27E7FDF095EE0F14
:1016F000FF1FEE0FFF1FE40FF51F40585F4FDA0189
:101700008C91992787FD9095A92FB92F808391837C
:10171000A283B383FA0130831F910F91FF90EF9062
:10172000DF90CF900895CF92DF92EF92FF920F93C8
:101730001F939C01862F877071E8C72ED12CC20E93
:10174000D31ED6014C91E42FFF27E7FDF095EE0F55
:10175000FF1FEE0FFF1FE20FF31FE080F1800281F9
:101760001381480FE42FFF27E7FDF095EE0FFF1FD1
:10177000EE0FFF1FE20FF31F6877862B90E0A0E0CB
:10178000B0E080839183A283B3834F5FE42FFF2770
:10179000E7FDF095EE0FFF1FEE0FFF1FE20FF31FA7
:1017A000E082F182028313834F5FF6014083E42FCE
:1017B000FF27E7FDF095EE0FFF1FEE0FFF1FE20F73
:1017C000F31F20583F4FD9018C91992787FD9095A1
:1017D000A92FB92F80839183A283B383F90140831A
:1017E0001F910F91FF90EF90DF90CF9008958F920F
:1017F0009F92AF92BF92CF92DF92EF92FF921F9390
:10180000CF93DF93EC01C058DF4FE881C058D04040
:10181000FF27E7FDF0953297EE0FFF1FEE0FFF1F3A
:10182000EC0FFD1F2081822F82958695869583700F
:1018300090E0A0E0B0E0122F16951695169517705F
:10184000277051E0852E912CA12CB12C8822992251
:10185000AA22BB2280FD05C040E050E060E070E0BD
:1018600014C0DE01AF57BF4F8C91E82FFF27E7FD73
:10187000F095EE0FFF1FEE0FFF1FEC0FFD1F4081D5
:1018800051816281738181508C93DE01AF57BF4FCC
:101890009C91E92FFF27E7FDF095EE0FFF1FEE0F5C
:1018A000FF1FEC0FFD1F8081C058DF4F8883C05899
:1018B000D0409150E92FFF27E7FDF095EE0FFF1F75
:1018C000EE0FFF1FEC0FFD1FC080D180E280F38080
:1018D000812F820F392F381B32503C93822F90E09A
:1018E000810F911D089714F0321B3C9381149104D1
:1018F000A104B10499F0DE01AF57BF4FEC91EF5F47
:10190000EC93FF27E7FDF095EE0FFF1FEE0FFF1F93
:10191000EC0FFD1F4083518362837383DE01AF5759
:10192000BF4FEC91EF5FEC93FF27E7FDF095EE0FD3
:10193000FF1FEE0FFF1FEC0FFD1FC082D182E2825E
:10194000F382DF91CF911F91FF90EF90DF90CF90C6
:10195000BF90AF909F908F900895EF92FF921F934A
:10196000CF93DF93EC01462FC058DF4F8881C058DA
:10197000D040682F772767FD7095FB013297EE0FF7
:10198000FF1FEE0FFF1FEC0FFD1F8081382F3695D4
:10199000369536953770282F2770822F90E0830F69
:1019A000911D08972CF0822F841B8E5F820F03C03D
:1019B000822F841B8E5F830F681B7109660F771F50
:1019C000660F771F6C0F7D1FFB0180819181A281C3
:1019D000B38131E8E32EF12CEC0EFD1EF7011081EE
:1019E000E12FFF27E7FDF095EE0FFF1FEE0FFF1F22
:1019F000EC0FFD1F20813181428153811150F7018D
:101A00001083820F931FA41FB51FFB018083918356
:101A1000A283B383DF91CF911F91FF90EF90089540
:101A2000CF93DF93EC01C058DF4F8881C058D0407E
:101A3000A82FBB27A7FDB095FD013297EE0FFF1F22
:101A4000EE0FFF1FEC0FFD1F8081382F3695369566
:101A500036953770282F2770822F90E0830F911DC5
:101A6000089734F0822F861B682F6E5F620F03C0C9
:101A7000261B622F6E5F630FA61BB109AA0FBB1F47
:101A8000AA0FBB1FAC0FBD1F2D913D914D915C91D5
:101A9000DE01AF57BF4FEC91EF5FEC93FF27E7FDFF
:101AA000F095EE0FFF1FEE0FFF1FEC0FFD1F2083C1
:101AB000318342835383DF91CF9108950F931F9316
:101AC000CF93DF93EC01C058DF4F8881C058D040DE
:101AD000082F112707FD1095F8013297EE0FFF1F11
:101AE000EE0FFF1FEC0FFD1F8081382F36953695C6
:101AF00036953770282F2770822F90E0830F911D25
:101B0000089734F0822F861B682F6E5F620F03C028
:101B1000261B622F6E5F630FDE01AF57BF4F8C91A4
:101B2000E82FFF27E7FDF095EE0FFF1FEE0FFF1FD9
:101B3000EC0FFD1F208131814281538181508C93B4
:101B4000061B1109000F111F000F111F0C0F1D1F85
:101B5000F8012083318342835383DF91CF911F911A
:101B60000F9108950F931F93BC01FC01EF57FF4F96
:101B70008081A82FBB27A7FDB095AA0FBB1FAA0F76
:101B8000BB1FA60FB71F2D913D914D915C91082F62
:101B900001500083211531054105510529F489E3E0
:101BA00091E00E94E30515C0112707FD1095000F75
:101BB000111F000F111F060F171FF801608171819F
:101BC000828193810E94660EF801208331834283D3
:101BD00053831F910F910895EF92FF920F931F93DC
:101BE000CF93DF93EC01E881F981EF57FF4F8081BC
:101BF0008F5F8A838BE50E94C80517C0E881F98151
:101C0000992787FD9095880F991F880F991FE80FD6
:101C1000F91FE080F180028113818BE491E00E9442
:101C2000E305C801B7010E94EC058A8181508A83CF
:101C300087FFE4CF8DE491E00E94E305DF91CF912F
:101C40001F910F91FF90EF900895629FD001739FB5
:101C5000F001829FE00DF11D649FE00DF11D929F48
:101C6000F00D839FF00D749FF00D659FF00D992787
:101C7000729FB00DE11DF91F639FB00DE11DF91FAB
:101C8000BD01CF0111240895A1E21A2EAA1BBB1B8E
:101C9000FD010DC0AA1FBB1FEE1FFF1FA217B30738
:101CA000E407F50720F0A21BB30BE40BF50B661F4E
:101CB000771F881F991F1A9469F760957095809512
:101CC00090959B01AC01BD01CF01089597FB092EB2
:101CD00005260ED057FD04D0D7DF0AD0001C38F4FB
:101CE00050954095309521953F4F4F4F5F4F089548
:101CF000F6F790958095709561957F4F8F4F9F4F28
:101D00000895A0E0B0E0E7E8FEE00C9463108C01D9
:101D1000009729F4CB010E94580F8C01BAC09EEFA6
:101D2000E92E9FEFF92EE00EF11E5801A60EB71E08
:101D3000AE14BF0408F4ABC08EEF882E8FEF982E40
:101D40008A0C9B1CE7014881598146175707B8F058
:101D50004530510508F49DC0CA01049786179707BE
:101D600008F497C042505040461B570BF401518372
:101D7000408379836883C5010E9405108AC06B0186
:101D8000C41AD50AE091FC01F091FD01A0E0B0E099
:101D9000C0E0D0E042C0E815F905A1F5208131810D
:101DA0002C153D0578F1C90102968C159D05A8F00A
:101DB0004E5F5F4F420F531FE701598348832281D3
:101DC0003381109729F013963C932E93129761C09C
:101DD0003093FD012093FC015CC0225030402C194F
:101DE0003D0931832083109729F01396FC93EE93DD
:101DF000129704C0F093FD01E093FC01F701718399
:101E0000608347C080819181C817D90708F4EC012D
:101E1000DF01828193819C01F901309709F0BBCFEA
:101E2000400F511F8091FA019091FB018417950793
:101E3000E9F4C617D707D0F4209154013091550129
:101E40002115310541F42DB73EB780915001909195
:101E50005101281B390BA216B306C8F4B092FB013E
:101E6000A092FA01E7017983688313C0CB010E9435
:101E7000580FEC01009759F0F70140815181B801EA
:101E80000E944F0FC8010E9405108E0102C000E0A1
:101E900010E0C801CDB7DEB7ECE00C947F10FB0179
:101EA000DC0102C001900D9241505040D8F70895D6
:101EB000CF93DF93BC018230910510F462E070E0B3
:101EC000A091FC01B091FD01ED01E0E0F0E040E007
:101ED00050E021C0888199818617970769F48A812B
:101EE0009B81309719F09383828304C09093FD0106
:101EF0008093FC01FE0134C06817790738F441155E
:101F0000510519F08417950708F4AC01FE018A8188
:101F10009B819C01E9012097E9F641155105A9F142
:101F2000CA01861B970B049708F4BA01E0E0F0E0C1
:101F30002AC08D919C91119784179507F9F4641725
:101F4000750781F412968D919C911397309719F033
:101F50009383828304C09093FD018093FC01FD0173
:101F600032964FC0CA01861B970BFD01E80FF91F7F
:101F70006193719302978D939C9343C0FD0182817D
:101F800093819C01D9011097A1F68091FA0190915B
:101F9000FB01892B41F48091520190915301909360
:101FA000FB018093FA014091540150915501411574
:101FB000510541F44DB75EB78091500190915101A8
:101FC000481B590B2091FA013091FB01241735076A
:101FD000B0F4CA01821B930B8617970780F0AB0100
:101FE0004E5F5F4F8417950750F0420F531F509379
:101FF000FB014093FA01F9016193719302C0E0E0A3
:10200000F0E0CF01DF91CF910895CF93DF93009758
:1020100009F450C0EC0122971B821A82A091FC01A6
:10202000B091FD01109709F140E050E0AC17BD07F9
:1020300008F1BB83AA83FE0121913191E20FF31FC6
:10204000AE17BF0779F48D919C911197280F391F16
:102050002E5F3F4F3983288312968D919C91139761
:102060009B838A834115510571F4D093FD01C09380
:10207000FC0120C012968D919C911397AD010097A1
:1020800011F0DC01D3CFFA01D383C28321913191C6
:10209000E20FF31FCE17DF0769F488819981280FBB
:1020A000391F2E5F3F4FFA01318320838A819B8144
:1020B00093838283DF91CF9108952F923F924F9225
:1020C0005F926F927F928F929F92AF92BF92CF92C8
:1020D000DF92EF92FF920F931F93CF93DF93CDB7D1
:1020E000DEB7CA1BDB0B0FB6F894DEBF0FBECDBF49
:1020F00009942A88398848885F846E847D848C841A
:102100009B84AA84B984C884DF80EE80FD800C8122
:102110001B81AA81B981CE0FD11D0FB6F894DEBF05
:0C2120000FBECDBFED010895F894FFCF75
:10212C00E80340004F70636F64653A2000206973C8
:10213C0020726573657276656420666F72206675B1
:10214C007475726520757365642E003C054B05AD86
:10215C000599055305850560054469766973696FB2
:10216C006E206279207A65726F0A002000205D0073
:06217C002000FE0100003E
:00000001FF
