:100000000C9453000C9470000C9470000C947000CD
:100010000C9470000C9470000C9470000C947000A0
:100020000C9470000C9470000C9470000C94700090
:100030000C9470000C9470000C9470000C94700080
:100040000C9470000C9470000C9470000C94700070
:100050000C9470000C9470000C9470000C94700060
:100060000C9470000C947000B001B701BE01C40183
:10007000E004E004E004E004E004E004E004CD0176
:10008000D401DD01E401EB01F201F90100020702F4
:100090000E0215021C0223022A02310238023F021C
:1000A00046024D02540211241FBECFEFD8E0DEBF3E
:1000B000CDBF11E0A0E0B1E0EAE0F1E202C00590BE
:1000C0000D92A435B107D9F711E0A4E5B1E001C064
:1000D0001D92AC3FB107E1F70E949C000C94831085
:1000E0000C940000CF93DF93EC0143E050E016C086
:1000F0008091540190915501E091F601F091F70142
:10010000E80FF91FDE01A40FB51F2C912083019683
:1001100090935501809354014F5F5F4F888190E029
:100120004817590734F48091540190915501029772
:10013000F8F2DF91CF9108950E9464010E947D0141
:100140000E94B7058AE00E94B705F8CF1F93182FC9
:1001500083E00E94B705812F0E94B70580E00E94CE
:10016000B7051F91089583E30E94B70580E00E94C0
:10017000B70508958CEC0E94B70580E00E94B70592
:100180000895AF92BF92CF92DF92EF92FF920F93BA
:100190001F93CF93DF935C010E947D01F501808363
:1001A000C82EDD24C501B6010E94700EEC015C0171
:1001B000760101E010E00DC00E947D01FE01E00F1C
:1001C000F11F80830130110511F0E80EF11C0F5F63
:1001D0001F4F0C151D0584F3898190E0E816F90680
:1001E00071F40E94BA00CE01DF91CF911F910F915F
:1001F000FF90EF90DF90CF90BF90AF9008950E9456
:10020000B300CACF8091F6019091F70160E070E0F1
:100210000E94700E8093F6019093F70110925501A1
:10022000109254010895862F782F772760E0620F8F
:10023000711D942F80E0680F791F8091F6019091D5
:10024000F7010E94700E8093F6019093F7010895D4
:100250008091F6019091F7010E94FD048091F601D2
:100260009091F7010E9484010895CF93DF93CE010E
:1002700063E070E00E94700E0E94C100EC018A8170
:10028000833261F0843228F4813269F0823279F766
:1002900015C0843279F0853251F713C08091000186
:1002A0000E94A600E4CF8B816C814D812E810E943B
:1002B0001301DDCFCE010E947200D9CF0E94280128
:1002C000D6CF0E940201D3CF81E091E00E94570572
:1002D0000E94A9050E946D0108951092C50087E64D
:1002E0008093C400E1ECF0E0808180618083E2ECE7
:1002F000F0E080818660808308958091C00087FF50
:10030000FCCF8091C60008952F923F924F925F924A
:100310006F927F928F929F92AF92BF92CF92DF9215
:10032000EF92FF920F931F93DF93CF9300D000D0F3
:10033000CDB7DEB7C8C2802F81508F3208F0BBC066
:10034000802F90E0FC013197EF31F10508F038C3C0
:10035000EC5CFF4FEE0FFF1F0590F491E02D099428
:1003600080915A0190915B010E941D0723C08091EA
:100370005A0190915B010E94AA0703C180915A0122
:1003800090915B010E94E60B80915A0190915B0174
:100390000E941D077C836B8313C380915A01909147
:1003A0005B010E94CF07FDC080915A0190915B01D3
:1003B0000E94EB072B813C8137C280915A019091BA
:1003C0005B010E941608DDC080915A0190915B018B
:1003D0000E944108E6C080915A0190915B010E9401
:1003E0006C08E8CF80915A0190915B010E948B08C4
:1003F000C8C080915A0190915B010E94A608D1C0AB
:1004000080915A0190915B010E94C108D3CF8091E5
:100410005A0190915B010E94EC08B3C080915A018F
:1004200090915B010E941709BCC080915A01909184
:100430005B010E94A10DBECF80915A0190915B019A
:100440000E9444099EC080915A0190915B010E94D4
:100450007109A7C080915A0190915B010E949C098B
:10046000A9CF80915A0190915B010E94C70989C070
:1004700080915A0190915B010E94FF0992C0809186
:100480005A0190915B010E94370A94CF80915A01E2
:1004900090915B010E946F0A74C080915A01909103
:1004A0005B010E94A70A7DC080915A0190915B0177
:1004B0000E94DF0A7FCF802F8053803250F480313A
:1004C00014F08051806F992787FD9095EB81FC8116
:1004D000D5C1802F80558032B0F4182F803114F0B0
:1004E0001051106F80915A0190915B010E941D077D
:1004F000611571058105910509F011E0812F99279A
:1005000087FD9095AEC1602F6057603238F48091BE
:100510005A0190915B010E94170B33C0802F8059C4
:100520008830B0F4802F90E087709070843091050F
:100530001CF004978C6F9F6FAC01662757FD609588
:10054000762F80915A0190915B010E94090729C082
:10055000802F8859883048F4077080915A01909113
:100560005B01602F0E949C0C25CF802F805A883021
:1005700060F4077080915A0190915B01602F0E9496
:10058000FF0C8B819C8101969EC1802F885A8830F8
:1005900060F4077080915A0190915B01602F0E9476
:1005A0004D0DEB81FC8131966BC1003B08F408C214
:1005B000093D09F4AEC00A3D40F5043B09F472C0A0
:1005C000053B80F4013B09F445C0023B20F4003BAD
:1005D00009F0E2C15DC0023B09F446C0033B09F0EB
:1005E000DBC14CC0053D09F481C0063D38F40F3B2A
:1005F00009F461C0043D09F0CFC167C0073D09F4AB
:1006000088C0083D09F0C8C1A1C00E3D09F4CAC0A8
:100610000F3D68F40B3D09F4C5C00B3D08F496C0CE
:100620000C3D09F476C00D3D09F0B6C18FC0033E04
:1006300009F404C1043E38F4003E09F4F8C0013E58
:1006400009F0AAC113C1073E09F41DC10F3F09F00B
:10065000A3C13CC180915A0190915B01EB81FC8167
:1006600061810E94FF0C91C180915A0190915B01C0
:10067000EB81FC8161810E944D0D87C180915A01FF
:1006800090915B0141E050E060E070E00E9409075A
:1006900080915A0190915B01EB81FC8161810E9404
:1006A0009C0C73C180915A0190915B014FEF5FEFF9
:1006B0006FEF7FEFEBCF80915A0190915B01EB815F
:1006C000FC8161810E94820B60C1EB81FC814181D0
:1006D000552747FD50954E0F5F1F662757FD6095C4
:1006E000762F80915A0190915B012DC0EB81FC81A6
:1006F00091808824428150E0482959294E0F5F1F7C
:10070000662757FD6095762F80915A0190915B0185
:1007100042C0EB81FC818181093D19F4482F20E022
:1007200002C0282F40E080915A0190915B01093D61
:1007300031F4552747FD5095652F752F04C0422F82
:1007400050E060E070E00E9409071FC1EB81FC816E
:10075000818192810A3D49F4782E6624292F30E068
:100760002629372940E050E008C0582E4424492F5C
:1007700050E04429552920E030E080915A019091C1
:100780005B010A3D31F4A901662757FD6095762F7C
:1007900002C060E070E00E9409072B813C812D5F60
:1007A0003F4FF7C02B813C812F5F3F4FF9013196BE
:1007B000DF0111967D010894E11CF11CB180AA248F
:1007C000A501662757FD6095762F407060707070A8
:1007D00011968C9190E0A0E0B0E0482B592B6A2B49
:1007E0007B2BEB81FC81D180CC24C601AA2797FD0D
:1007F000A095BA2F8070A070B070F901018110E04F
:1008000020E030E0802B912BA22BB32BDC01992729
:100810008827482B592B6A2B7B2B80915A0190916A
:100820005B010E94090797012F5F3F4FB2C0EB8128
:10083000FC818181992787FD909520C080915A0184
:1008400090915B010E941D0761157105810591055D
:1008500011F082E003C0EB81FC818181992787FD43
:1008600090952B813C81280F391F93C0EB81FC812F
:1008700031802224828190E082299329E80FF91F98
:10088000FC83EB839DC0EB81FC81F181FA831982AB
:10089000EB81FC81028110E029813A81022B132B2C
:1008A0003396AF01662757FD6095762F3397FC830B
:1008B000EB8380915A0190915B010E9409078B8123
:1008C0009C81800F911F9C838B837AC0EB81FC817C
:1008D0009181892F8058883008F057C0892F90E087
:1008E0008F7090708330910589F1843091054CF4BC
:1008F00081309105C1F082309105FCF4892B51F0D3
:1009000044C086309105B1F187309105E1F105973A
:10091000E1F525C080915A0190915B010E941D076D
:100920000E94AE0532C080915A0190915B010E94F5
:100930001D07862F0E94B70528C080915A0190910B
:100940005B010E941D070E94C0051FC080915A01D3
:1009500090915B010E941D070E94C90516C08091FD
:100960005A0190915B010E941D07DC01CB010E949E
:10097000D2050BC080915A0190915B010E941D0726
:100980000E94DB0502C00E94E4052B813C812E5FA2
:100990003F4F3C832B8314C082E091E00E94D2053C
:1009A000602F70E080E090E00E94DB058BE091E03A
:1009B0000E94D2050E94E40580E090E00E9483102E
:1009C000EB81FC810081002309F0B5CC0F900F90E2
:1009D0000F900F90CF91DF911F910F91FF90EF90AB
:1009E000DF90CF90BF90AF909F908F907F906F904F
:1009F0005F904F903F902F90089510925601109263
:100A00005701109258011092590180E20E94E606A7
:100A100090935B0180935A010E94510790935D016E
:100A200080935C0108951092C50087E68093C4000E
:100A3000E1ECF0E0808188608083E2ECF0E080818E
:100A4000866080830895982F8091C00085FFFCCF39
:100A50009093C6000895611571058105910511F403
:100A600096E401C094E58091C00085FFFCCF90938F
:100A7000C6000895982F8091C00085FFFCCF909309
:100A8000C6000895FC0107C08091C00085FFFCCF1F
:100A900031969093C60090819923B1F70895809183
:100AA000C00085FFFCCF8AE08093C6000895809146
:100AB0005E0190915F01A0916001B091610100978A
:100AC000A105B10571F40E94130581E090E0A0E05A
:100AD000B0E080935E0190935F01A0936001B093BA
:100AE000610189E291E00895EF92FF920F9322E66F
:100AF000E22E21E0F22EA70120E030E000E10E948A
:100B0000ED05C7010E9442050F91FF90EF900895F7
:100B1000EF92FF920F9332E6E32E31E0F32EA7011E
:100B200020E030E00AE00E94ED05C7010E94420586
:100B30000F91FF90EF9008950F931F9302E611E03D
:100B4000A8010E94C706C8010E9442051F910F918B
:100B5000089590936F0180936E010895E0916E0166
:100B6000F0916F010190F081E02D09950895E091D9
:100B70006E01F0916F010280F381E02D09950895D7
:100B8000E0916E01F0916F010480F581E02D0995EF
:100B90000895E0916E01F0916F010680F781E02DDC
:100BA00009950895E0916E01F0916F010084F1853F
:100BB000E02D09950895E0916E01F0916F01028496
:100BC000F385E02D09950895E0916E01F0916F0194
:100BD0000484F585E02D099508952F923F924F9258
:100BE0005F926F927F928F929F92AF92BF92CF92BD
:100BF000DF92EF92FF920F931F93DF93CF93CDB7C6
:100C0000DEB72D970FB6F894DEBF0FBECDBF698358
:100C10007A838B839C835E834D833D872C870F83F0
:100C20000A3041F4612C2AEC722E2AE9822E2BE341
:100C3000922E07C020E12F83612C712C812C90E132
:100C4000992E89819A81AB81BC810097A105B1055C
:100C500061F4ED81FE81AC85BD85EA0FFB1F80E369
:100C600080831196BD87AC8771C022243324210173
:100C70003F81232F30E040E050E0288739874A87C2
:100C80005B8769817A818B819C81A40193010E9499
:100C9000330E59016A01211431044104510429F42D
:100CA000A114B104C104D10469F14F814A3079F42F
:100CB000ED81FE818C859D85E80FF91F8A2D805D71
:100CC0008083AC85BD851196BD87AC8716C0BAE020
:100CD000AB16B104C104D10418F08A2D895C02C09E
:100CE0008A2D805DED81FE812C853D85E20FF31F0D
:100CF00080832F5F3F4F3D872C8781E0282E312C4A
:100D0000412C512CC401B301288539854A855B8566
:100D10000E94330E79018A01E114F10401051105E5
:100D2000A9F0C601B501A40193010E94140E298106
:100D30003A814B815C81261B370B480B590B298369
:100D40003A834B835C83370148019BCF4D815E81A1
:100D50008C859D85480F591FDA011C922D960FB680
:100D6000F894DEBF0FBECDBFCF91DF911F910F91E1
:100D7000FF90EF90DF90CF90BF90AF909F908F90BB
:100D80007F906F905F904F903F902F9008950F93BA
:100D90001F938B019C01DA0197FD03C0E0E0F0E0B6
:100DA0000BC08DE28C9330952095109501951F4FC7
:100DB0002F4F3F4FE1E0F0E0C901B801AD019F01C5
:100DC0000AE00E94ED051F910F910895982F882346
:100DD00039F08FEF8093F1018093F0019093F2014D
:100DE00080E791E008950895FC01EF57FF4F2081BF
:100DF000332727FD30952F5F3F4F442737FD409520
:100E0000542FB901CA010895FC01EE57FF4F8081AC
:100E10000895DC01AF57BF4FEC91EF5FEC93FF27D4
:100E2000E7FDF095EE0FFF1FEE0FFF1FE80FF91F14
:100E300040835183628373830895DC01AF57BF4FB2
:100E40002C91E22FFF27E7FDF095EE0FFF1FEE0F2D
:100E5000FF1FE80FF91F608171818281938121500A
:100E60002C93089520E030E040E050E0FC01EF5783
:100E7000FF4F80818F3F21F421E030E040E050E0DF
:100E8000B901CA010895FC019093F4018093F30124
:100E9000EF57FF4F80818F5F8093F50183EF91E0E3
:100EA0000895FC019093F4018093F301EF57FF4FF5
:100EB00080818F5F8093F50183EF91E0089508951D
:100EC000FC01228121502283332727FD3095432FB7
:100ED000532F2095309540955095222757FD239507
:100EE000332744275527B901CA010895FC01A08181
:100EF000B1818281992787FD9095880F991F880F6E
:100F0000991FA80FB91F6C9111967C911197129699
:100F10008C91129713969C910895FC01A081B18148
:100F2000AF57BF4F8C918F5F82830895FC01EF57BD
:100F3000FF4F8081E158F040992787FD9095880FF9
:100F4000991F880F991FE80FF91F608171818281B5
:100F500093810895BC016F577F4FFB01A081EA2F59
:100F6000FF27E7FDF095EE0FFF1FEE0FFF1FE80FC5
:100F7000F91F2081318142815381AF5FFB01A08342
:100F8000BB27A7FDB095AA0FBB1FAA0FBB1FA80FB9
:100F9000B91F2D933D934D935C9313970895FC01D6
:100FA000EF57FF4F8081E158F040992787FD9095DA
:100FB000880F991F880F991FE80FF91F8081918171
:100FC000A281B38180959095A095B09580839183FF
:100FD000A283B3830895DC01AF57BF4F6C91E62F16
:100FE000FF27E7FDF095EE0FFF1FEE0FFF1FE80F45
:100FF000F91F2081318142815381E62FE150EC932A
:10100000FF27E7FDF095EE0FFF1FEE0FFF1FE80F24
:10101000F91F80819181A281B38182239323A4232C
:10102000B52380839183A283B3830895DC01AF57F6
:10103000BF4F6C91E62FFF27E7FDF095EE0FFF1FE6
:10104000EE0FFF1FE80FF91F20813181428153818C
:10105000E62FE150EC93FF27E7FDF095EE0FFF1F21
:10106000EE0FFF1FE80FF91F80819181A281B381EC
:10107000822B932BA42BB52B80839183A283B383E4
:101080000895DC01AF57BF4F6C91E62FFF27E7FDB6
:10109000F095EE0FFF1FEE0FFF1FE80FF91F2081E5
:1010A000318142815381E62FE150EC93FF27E7FD28
:1010B000F095EE0FFF1FEE0FFF1FE80FF91F808165
:1010C0009181A281B38182279327A427B5278083AA
:1010D0009183A283B3830895FC01EF57FF4F808172
:1010E000E158F040992787FD9095880F991F880F48
:1010F000991FE80FF91F80819181A281B381B0957A
:10110000A095909581959F4FAF4FBF4F808391835E
:10111000A283B3830895FC01EF57FF4F8081E1580C
:10112000F040992787FD9095880F991F880F991F88
:10113000E80FF91F80819181A281B3810196A11DE1
:10114000B11D80839183A283B3830895FC01EF577F
:10115000FF4F8081E158F040992787FD9095880FD7
:10116000991F880F991FE80FF91F80819181A28133
:10117000B3810197A109B10980839183A283B383CD
:101180000895DC01AF57BF4F6C91E62FFF27E7FDB5
:10119000F095EE0FFF1FEE0FFF1FE80FF91F2081E4
:1011A000318142815381E62FE150EC93FF27E7FD27
:1011B000F095EE0FFF1FEE0FFF1FE80FF91F808164
:1011C0009181A281B381820F931FA41FB51F8083D9
:1011D0009183A283B3830895DC01AF57BF4F6C9115
:1011E000E62FFF27E7FDF095EE0FFF1FEE0FFF1F25
:1011F000E80FF91F2081318142815381E62FE150B0
:10120000EC93FF27E7FDF095EE0FFF1FEE0FFF1F9A
:10121000E80FF91F80819181A281B381821B930B1A
:10122000A40BB50B80839183A283B3830895CF93DE
:10123000DF93DC01AF57BF4F6C91E62FFF27E7FD2F
:10124000F095EE0FFF1FEE0FFF1FE80FF91F208133
:1012500031814281538161506C93C62FDD27C7FDD8
:10126000D095CC0FDD1FCC0FDD1FC80FD91F6881B3
:1012700079818A819B810E94140E688379838A8395
:101280009B83DF91CF910895CF93DF93DC01AF571C
:10129000BF4F6C91E62FFF27E7FDF095EE0FFF1F84
:1012A000EE0FFF1FE80FF91F20813181428153812A
:1012B00061506C93C62FDD27C7FDD095CC0FDD1F85
:1012C000CC0FDD1FC80FD91F688179818A819B816E
:1012D0000E94550E688379838A839B83DF91CF9127
:1012E0000895DC01AF57BF4F3C91E32FFF27E7FD87
:1012F000F095EE0FFF1FEE0FFF1FE80FF91F208183
:10130000E32FE150EC93FF27E7FDF095EE0FFF1F71
:10131000EE0FFF1FE80FF91F80819181A281B38139
:1013200004C0880F991FAA1FBB1F2A95D2F780837C
:101330009183A283B3830895DC01AF57BF4F3C91E3
:10134000E32FFF27E7FDF095EE0FFF1FEE0FFF1FC6
:10135000E80FF91F2081E32FE150EC93FF27E7FD11
:10136000F095EE0FFF1FEE0FFF1FE80FF91F8081B2
:101370009181A281B38104C0B595A7959795879572
:101380002A95D2F780839183A283B38308950F9324
:101390001F93DC01AF57BF4F2C91E22FFF27E7FDD2
:1013A000F095EE0FFF1FEE0FFF1FE80FF91F4081B2
:1013B00051816281738121502C93E22FFF27E7FD39
:1013C000F095EE0FFF1FEE0FFF1FE80FF91F00E073
:1013D00010E020E030E080819181A281B381841708
:1013E0009507A607B70721F401E010E020E030E000
:1013F00000831183228333831F910F9108950F93EC
:101400001F93DC01AF57BF4F2C91E22FFF27E7FD61
:10141000F095EE0FFF1FEE0FFF1FE80FF91F408141
:1014200051816281738121502C93E22FFF27E7FDC8
:10143000F095EE0FFF1FEE0FFF1FE80FF91F00E002
:1014400010E020E030E080819181A281B381841797
:101450009507A607B70721F001E010E020E030E093
:1014600000831183228333831F910F9108950F937B
:101470001F93DC01AF57BF4F2C91E22FFF27E7FDF1
:10148000F095EE0FFF1FEE0FFF1FE80FF91F4081D1
:1014900051816281738121502C93E22FFF27E7FD58
:1014A000F095EE0FFF1FEE0FFF1FE80FF91F00E092
:1014B00010E020E030E080819181A281B381841727
:1014C0009507A607B70724F401E010E020E030E01C
:1014D00000831183228333831F910F9108950F930B
:1014E0001F93DC01AF57BF4F2C91E22FFF27E7FD81
:1014F000F095EE0FFF1FEE0FFF1FE80FF91F408161
:1015000051816281738121502C93E22FFF27E7FDE7
:10151000F095EE0FFF1FEE0FFF1FE80FF91F00E021
:1015200010E020E030E080819181A281B3814817F2
:1015300059076A077B0724F401E010E020E030E05F
:1015400000831183228333831F910F9108950F939A
:101550001F93DC01AF57BF4F2C91E22FFF27E7FD10
:10156000F095EE0FFF1FEE0FFF1FE80FF91F4081F0
:1015700051816281738121502C93E22FFF27E7FD77
:10158000F095EE0FFF1FEE0FFF1FE80FF91F00E0B1
:1015900010E020E030E080819181A281B381481782
:1015A00059076A077B0724F001E010E020E030E0F3
:1015B00000831183228333831F910F9108950F932A
:1015C0001F93DC01AF57BF4F2C91E22FFF27E7FDA0
:1015D000F095EE0FFF1FEE0FFF1FE80FF91F408180
:1015E00051816281738121502C93E22FFF27E7FD07
:1015F000F095EE0FFF1FEE0FFF1FE80FF91F00E041
:1016000010E020E030E080819181A281B3818417D5
:101610009507A607B70724F001E010E020E030E0CE
:1016200000831183228333831F910F910895CF92FA
:10163000DF92EF92FF920F931F93AC01862F83707E
:1016400011E8C12ED12CC40ED51ED6012C91E22F4B
:10165000FF27E7FDF095EE0FFF1FEE0FFF1FE40FD2
:10166000F51FE080F18002811381382F320FE32FC4
:10167000FF27E7FDF095EE0FFF1FEE0FFF1FE40FB2
:10168000F51F262F220F220F2074660F6871262B5C
:10169000822B90E0A0E0B0E080839183A283B383AB
:1016A0003F5FE32FFF27E7FDF095EE0FFF1FEE0FE3
:1016B000FF1FE40FF51FE082F182028313833F5F77
:1016C000F6013083E32FFF27E7FDF095EE0FFF1FB4
:1016D000EE0FFF1FE40FF51F40585F4FDA018C91AA
:1016E000992787FD9095A92FB92F80839183A28395
:1016F000B383FA0130831F910F91FF90EF90DF9039
:10170000CF900895CF92DF92EF92FF920F931F93A5
:101710009C01862F877071E8C72ED12CC20ED31E74
:10172000D6014C91E42FFF27E7FDF095EE0FFF1F48
:10173000EE0FFF1FE20FF31FE080F18002811381A3
:10174000480FE42FFF27E7FDF095EE0FFF1FEE0F88
:10175000FF1FE20FF31F6877862B90E0A0E0B0E058
:1017600080839183A283B3834F5FE42FFF27E7FD3C
:10177000F095EE0FFF1FEE0FFF1FE20FF31FE08249
:10178000F182028313834F5FF6014083E42FFF272A
:10179000E7FDF095EE0FFF1FEE0FFF1FE20FF31FA7
:1017A00020583F4FD9018C91992787FD9095A92FFB
:1017B000B92F80839183A283B383F90140831F9162
:1017C0000F91FF90EF90DF90CF9008958F929F92AE
:1017D000AF92BF92CF92DF92EF92FF921F93CF937F
:1017E000DF93EC01C058DF4FE881C058D040FF279D
:1017F000E7FDF0953297EE0FFF1FEE0FFF1FEC0F86
:10180000FD1F2081822F829586958695837090E0BA
:10181000A0E0B0E0122F1695169516951770277058
:1018200051E0852E912CA12CB12C88229922AA223C
:10183000BB2280FD05C040E050E060E070E014C0D5
:10184000DE01AF57BF4F8C91E82FFF27E7FDF095E2
:10185000EE0FFF1FEE0FFF1FEC0FFD1F40815181A8
:101860006281738181508C93DE01AF57BF4F9C9191
:10187000E92FFF27E7FDF095EE0FFF1FEE0FFF1F8B
:10188000EC0FFD1F8081C058DF4F8883C058D040C7
:101890009150E92FFF27E7FDF095EE0FFF1FEE0FA8
:1018A000FF1FEC0FFD1FC080D180E280F380812FED
:1018B000820F392F381B32503C93822F90E0810FDA
:1018C000911D089714F0321B3C9381149104A104DC
:1018D000B10499F0DE01AF57BF4FEC91EF5FEC938D
:1018E000FF27E7FDF095EE0FFF1FEE0FFF1FEC0F38
:1018F000FD1F4083518362837383DE01AF57BF4F67
:10190000EC91EF5FEC93FF27E7FDF095EE0FFF1FE3
:10191000EE0FFF1FEC0FFD1FC082D182E282F38227
:10192000DF91CF911F91FF90EF90DF90CF90BF900C
:10193000AF909F908F900895EF92FF921F93CF9357
:10194000DF93EC01462FC058DF4F8881C058D0404C
:10195000682F772767FD7095FB013297EE0FFF1F09
:10196000EE0FFF1FEC0FFD1F8081382F3695369547
:1019700036953770282F2770822F90E0830F911DA6
:1019800008972CF0822F841B8E5F820F03C0822F5A
:10199000841B8E5F830F681B7109660F771F660FAC
:1019A000771F6C0F7D1FFB0180819181A281B38124
:1019B00031E8E32EF12CEC0EFD1EF7011081E12F32
:1019C000FF27E7FDF095EE0FFF1FEE0FFF1FEC0F57
:1019D000FD1F20813181428153811150F701108315
:1019E000820F931FA41FB51FFB0180839183A283E5
:1019F000B383DF91CF911F91FF90EF900895CF9324
:101A0000DF93EC01C058DF4F8881C058D040A82F29
:101A1000BB27A7FDB095FD013297EE0FFF1FEE0F1C
:101A2000FF1FEC0FFD1F8081382F369536953695B8
:101A30003770282F2770822F90E0830F911D089711
:101A400034F0822F861B682F6E5F620F03C0261B47
:101A5000622F6E5F630FA61BB109AA0FBB1FAA0FEF
:101A6000BB1FAC0FBD1F2D913D914D915C91DE01CF
:101A7000AF57BF4FEC91EF5FEC93FF27E7FDF09579
:101A8000EE0FFF1FEE0FFF1FEC0FFD1F20833183B2
:101A900042835383DF91CF9108950F931F93CF9388
:101AA000DF93EC01C058DF4F8881C058D040082F29
:101AB000112707FD1095F8013297EE0FFF1FEE0F6B
:101AC000FF1FEC0FFD1F8081382F36953695369518
:101AD0003770282F2770822F90E0830F911D089771
:101AE00034F0822F861B682F6E5F620F03C0261BA7
:101AF000622F6E5F630FDE01AF57BF4F8C91E82FEF
:101B0000FF27E7FDF095EE0FFF1FEE0FFF1FEC0F15
:101B1000FD1F208131814281538181508C93061BAE
:101B20001109000F111F000F111F0C0F1D1FF801CD
:101B30002083318342835383DF91CF911F910F9193
:101B400008950F931F93BC01FC01EF57FF4F808155
:101B5000A82FBB27A7FDB095AA0FBB1FAA0FBB1FBD
:101B6000A60FB71F2D913D914D915C91082F01500B
:101B70000083211531054105510529F487E391E0E2
:101B80000E94D20515C0112707FD1095000F111FE7
:101B9000000F111F060F171FF801608171818281EC
:101BA00093810E94550EF801208331834283538331
:101BB0001F910F910895EF92FF920F931F93CF9370
:101BC000DF93EC01E881F981EF57FF4F80818F5F50
:101BD0008A838BE50E94B70517C0E881F9819927B0
:101BE00087FD9095880F991F880F991FE80FF91F9F
:101BF000E080F1800281138189E491E00E94D205A6
:101C0000C801B7010E94DB058A8181508A8387FF62
:101C1000E4CF8BE491E00E94D205DF91CF911F9138
:101C20000F91FF90EF900895629FD001739FF00194
:101C3000829FE00DF11D649FE00DF11D929FF00D5C
:101C4000839FF00D749FF00D659FF00D9927729F93
:101C5000B00DE11DF91F639FB00DE11DF91FBD011E
:101C6000CF0111240895A1E21A2EAA1BBB1BFD016E
:101C70000DC0AA1FBB1FEE1FFF1FA217B307E4076B
:101C8000F50720F0A21BB30BE40BF50B661F771FC3
:101C9000881F991F1A9469F76095709580959095A3
:101CA0009B01AC01BD01CF01089597FB092E0526CC
:101CB0000ED057FD04D0D7DF0AD0001C38F4509561
:101CC0004095309521953F4F4F4F5F4F0895F6F760
:101CD00090958095709561957F4F8F4F9F4F089598
:101CE000A0E0B0E0E6E7FEE00C9452108C01009713
:101CF00029F4CB010E94470F8C01BAC09EEFE92E58
:101D00009FEFF92EE00EF11E5801A60EB71EAE147D
:101D1000BF0408F4ABC08EEF882E8FEF982E8A0C8C
:101D20009B1CE7014881598146175707B8F0453099
:101D3000510508F49DC0CA0104978617970708F457
:101D400097C042505040461B570BF40151834083CB
:101D500079836883C5010E94F40F8AC06B01C41A9D
:101D6000D50AE091FA01F091FB01A0E0B0E0C0E0FB
:101D7000D0E042C0E815F905A1F5208131812C158C
:101D80003D0578F1C90102968C159D05A8F04E5FBE
:101D90005F4F420F531FE7015983488322813381EC
:101DA000109729F013963C932E93129761C03093AD
:101DB000FB012093FA015CC0225030402C193D09F0
:101DC00031832083109729F01396FC93EE9312979A
:101DD00004C0F093FB01E093FA01F7017183608383
:101DE00047C080819181C817D90708F4EC01DF0151
:101DF000828193819C01F901309709F0BBCF400F9C
:101E0000511F8091F8019091F90184179507E9F429
:101E1000C617D707D0F420915201309153012115F4
:101E2000310541F42DB73EB780914E0190914F019D
:101E3000281B390BA216B306C8F4B092F901A09280
:101E4000F801E7017983688313C0CB010E94470F33
:101E5000EC01009759F0F70140815181B8010E94CF
:101E60003E0FC8010E94F40F8E0102C000E010E096
:101E7000C801CDB7DEB7ECE00C946E10FB01DC01BD
:101E800002C001900D9241505040D8F70895CF9371
:101E9000DF93BC018230910510F462E070E0A09104
:101EA000FA01B091FB01ED01E0E0F0E040E050E02C
:101EB00021C0888199818617970769F48A819B815F
:101EC000309719F09383828304C09093FB01809331
:101ED000FA01FE0134C06817790738F4411551053D
:101EE00019F08417950708F4AC01FE018A819B81E3
:101EF0009C01E9012097E9F641155105A9F1CA01B4
:101F0000861B970B049708F4BA01E0E0F0E02AC0C2
:101F10008D919C91119784179507F9F464177507B3
:101F200081F412968D919C911397309719F09383B9
:101F3000828304C09093FB018093FA01FD013296E5
:101F40004FC0CA01861B970BFD01E80FF91F619373
:101F5000719302978D939C9343C0FD01828193817D
:101F60009C01D9011097A1F68091F8019091F90197
:101F7000892B41F480915001909151019093F90186
:101F80008093F80140915201509153014115510540
:101F900041F44DB75EB780914E0190914F01481BBF
:101FA000590B2091F8013091F90124173507B0F44D
:101FB000CA01821B930B8617970780F0AB014E5F17
:101FC0005F4F8417950750F0420F531F5093F9014C
:101FD0004093F801F9016193719302C0E0E0F0E0F1
:101FE000CF01DF91CF910895CF93DF93009709F44C
:101FF00050C0EC0122971B821A82A091FA01B09185
:10200000FB01109709F140E050E0AC17BD0708F163
:10201000BB83AA83FE0121913191E20FF31FAE171A
:10202000BF0779F48D919C911197280F391F2E5F6E
:102030003F4F3983288312968D919C9113979B83F0
:102040008A834115510571F4D093FB01C093FA01C5
:1020500020C012968D919C911397AD01009711F0BD
:10206000DC01D3CFFA01D383C28321913191E20FF6
:10207000F31FCE17DF0769F488819981280F391F74
:102080002E5F3F4FFA01318320838A819B819383A6
:102090008283DF91CF9108952F923F924F925F926A
:1020A0006F927F928F929F92AF92BF92CF92DF9268
:1020B000EF92FF920F931F93CF93DF93CDB7DEB7CD
:1020C000CA1BDB0B0FB6F894DEBF0FBECDBF099461
:1020D0002A88398848885F846E847D848C849B84B8
:1020E000AA84B984C884DF80EE80FD800C811B81C6
:1020F000AA81B981CE0FD11D0FB6F894DEBF0FBEF5
:0A210000CDBFED010895F894FFCF64
:10210A0040004F70636F64653A2000206973207243
:10211A006573657276656420666F7220667574757C
:10212A00726520757365642E002B053A059C058837
:10213A0005420574054F054469766973696F6E2017
:10214A006279207A65726F0A002000205D00200003
:04215A00FC01000084
:00000001FF
