:100000000C9453000C9470000C9470000C947000CD
:100010000C9470000C9470000C9470000C947000A0
:100020000C9470000C9470000C9470000C94700090
:100030000C9470000C9470000C9470000C94700080
:100040000C9470000C9470000C9470000C94700070
:100050000C9470000C9470000C9470000C94700060
:100060000C9470000C94700027042E0435043B049B
:1000700057075707570757075707570757074404A6
:100080004B0454045B0462046904700477047E0426
:1000900085048C0493049A04A104A804AF04B60454
:1000A000BD04C404CB0411241FBECFEFD8E0DEBFD3
:1000B000CDBF12E0A0E0B1E0ECE5F1E202C00590B6
:1000C0000D92A23EB107D9F717E1A2EEB2E001C04E
:1000D0001D92A839B107E1F70E9472000C94AC1090
:1000E0000C9400000E945E0380E091E00E94E00317
:1000F00080E090E008951092C50087E68093C400E8
:10010000E1ECF0E0808188608083E2ECF0E08081C7
:10011000866080830895982F8091C00085FFFCCF72
:100120009093C6000895611571058105910511F43C
:1001300096E401C094E58091C00085FFFCCF9093C8
:10014000C6000895982F8091C00085FFFCCF909342
:10015000C6000895FC0107C08091C00085FFFCCF58
:1001600031969093C60090819923B1F708958091BC
:10017000C00085FFFCCF8AE08093C600089580917F
:10018000E2029091E302A091E402B091E5020097AF
:10019000A105B10571F40E947B0081E090E0A0E030
:1001A000B0E08093E2029093E302A093E402B09364
:1001B000E50289E091E00895EF92FF920F9326EE19
:1001C000E22E22E0F22EA70120E030E000E10E94C2
:1001D0001101C7010E94AA000F91FF90EF900895AE
:1001E000EF92FF920F9336EEE32E32E0F32EA7014B
:1001F00020E030E00AE00E941101C7010E94AA003D
:100200000F91FF90EF9008950F931F9306EE12E069
:10021000A8010E94EB01C8010E94AA001F910F9142
:1002200008952F923F924F925F926F927F928F929A
:100230009F92AF92BF92CF92DF92EF92FF920F9375
:100240001F93DF93CF93CDB7DEB72D970FB6F894FA
:10025000DEBF0FBECDBF69837A838B839C835E83B1
:100260004D833D872C870F830A3041F4612C2AECA3
:10027000722E2AE9822E2BE3922E07C020E12F83D3
:10028000612C712C812C90E1992E89819A81AB810E
:10029000BC810097A105B10561F4ED81FE81AC85BB
:1002A000BD85EA0FFB1F80E380831196BD87AC8775
:1002B00071C02224332421013F81232F30E040E00C
:1002C00050E0288739874A875B8769817A818B81EB
:1002D0009C81A40193010E94D70E59016A01211447
:1002E00031044104510429F4A114B104C104D1041E
:1002F00069F14F814A3079F4ED81FE818C859D85CD
:10030000E80FF91F8A2D805D8083AC85BD8511962D
:10031000BD87AC8716C0BAE0AB16B104C104D104E6
:1003200018F08A2D895C02C08A2D805DED81FE81E6
:100330002C853D85E20FF31F80832F5F3F4F3D8764
:100340002C8781E0282E312C412C512CC401B30183
:10035000288539854A855B850E94D70E79018A01F7
:10036000E114F10401051105A9F0C601B501A401CC
:1003700093010E94B80E29813A814B815C81261B32
:10038000370B480B590B29833A834B835C83370126
:1003900048019BCF4D815E818C859D85480F591FFB
:1003A000DA011C922D960FB6F894DEBF0FBECDBFBA
:1003B000CF91DF911F910F91FF90EF90DF90CF9041
:1003C000BF90AF909F908F907F906F905F904F9075
:1003D0003F902F9008950F931F938B019C01DA019A
:1003E00097FD03C0E0E0F0E00BC08DE28C93309508
:1003F0002095109501951F4F2F4F3F4FE1E0F0E002
:10040000C901B801AD019F010AE00E9411011F91CD
:100410000F91089587E191E00E94E00380E291E06E
:100420000E94E00383E291E00E94E00389E391E00F
:100430000E94E0038DE691E00E94E0030895DC0154
:100440000D900020E9F71197A81BB90BA80FB91F51
:1004500008C02C912C3511F02F3211F4119604C0E4
:1004600011978A179B07A8F3CD010895CF93DF93C7
:10047000EC016EE270E00E942F0F9C01009731F0BA
:100480008C179D0719F02F5F3F4F02C02EE931E016
:10049000C901DF91CF910895AF92BF92CF92DF92C1
:1004A000EF92FF920F931F93DF93CF93CDB7DEB7F9
:1004B000CA5FD0400FB6F894DEBF0FBECDBF7C013F
:1004C0005B010E945E038EE893E0AA2797FDA0954A
:1004D000BA2F80509C4FAF4FBF4F80709C7F90933E
:1004E0008D0380938C0382E0E816F104B4F1F501EA
:1004F00002811381C8016FE971E00E941F0F00970C
:1005000039F0C80162EA71E00E941F0F009719F4E8
:100510000E940A021FC0C80168EA71E00E941F0F12
:100520000097D9F48BEA91E00E94E0038EE991E014
:100530000E94E0038FEB91E00E94E0038FEC91E0DA
:100540000E94E0030E94F20387ED91E00E94E00325
:100550000E94F20320E030E09EC0F2E0EF16F104CA
:1005600009F091C083E3C82ED12CCC0EDD1EF5011D
:1005700062817381C6010E94280FC6010E941F027A
:100580008C01C6010E9436027C01C601B8010E949E
:10059000280FE114F10409F46DC0C70164E072E0B2
:1005A0000E941F0F009709F065C08E010F5F1F4F5B
:1005B000C8016EE971E00E94280FC801B6010E94CF
:1005C000140FA0908A03B0908B03A114B10451F4CE
:1005D000C6010E94E00388E092E00E94E0032FEF52
:1005E0003FEF59C0C5010E94650F182FC5010E9439
:1005F000650F312F20E0C82EDD24C22AD32AF1E076
:10060000CF16F0E1DF06A8F4EE24FF240EC000911F
:100610008C0310918D030E0D1F1DC5010E94650FE7
:10062000F80180830894E11CF11CEC14FD0478F3BC
:1006300011C08AE192E00E94E00360E070E180E096
:1006400090E00E94D70381E492E00E94E0032EEF45
:100650003FEF21C0C5010E943A0F80918C03909119
:100660008D030E94740780918C0390918D030E94EA
:10067000FB0370CF8BE492E00E94E0030E940A0229
:100680002DEF3FEF08C08BE792E00E94E0030E944D
:100690000A022CEF3FEFC901C650DF4F0FB6F894A6
:1006A000DEBF0FBECDBFCF91DF911F910F91FF90A5
:1006B000EF90DF90CF90BF90AF9008958DE992E0DA
:1006C0000E94BF000E94B7030895EF92FF920F931C
:1006D0001F93E090F202F090F3020091F402109167
:1006E000F5020894E11CF11C011D111DE092F202BB
:1006F000F092F3020093F4021093F502102F0F2DE5
:10070000FE2CEE242091F6023091F7024091F8027F
:100710005091F902E4E0220F331F441F551FEA9560
:10072000D1F7E22AF32A042B152B70708070907099
:10073000E62AF72A082B192BB701C8011F910F9140
:10074000FF90EF9008958091F6029091F702A091AA
:10075000F802B091F9020196A11DB11D8093F60235
:100760009093F702A093F802B093F9020895909342
:10077000FB028093FA020895E091FA02F091FB02E5
:100780000190F081E02D09950895E091FA02F09131
:10079000FB020280F381E02D09950895E091FA02B1
:1007A000F091FB020480F581E02D09950895E09118
:1007B000FA02F091FB020680F781E02D0995089579
:1007C000E091FA02F091FB020084F185E02D099599
:1007D0000895E091FA02F091FB020284F385E02D86
:1007E00009950895E091FA02F091FB020484F585E1
:1007F000E02D099508952F923F924F925F926F924C
:100800007F928F929F92AF92BF92CF92DF92EF92A0
:10081000FF920F931F93DF93CF9300D000D0CDB7FB
:10082000DEB7C8C2802F81508F3208F0BBC0802F46
:1008300090E0FC013197EF31F10508F038C3EC5C32
:10084000FF4FEE0FFF1F0590F491E02D099480916A
:100850000003909101030E94C10723C0809100030F
:10086000909101030E944E0803C180910003909172
:1008700001030E948A0C80910003909101030E9461
:10088000C1077C836B8313C38091000390910103A4
:100890000E947308FDC080910003909101030E94A3
:1008A0008F082B813C8137C2809100039091010316
:1008B0000E94BA08DDC080910003909101030E945C
:1008C000E508E6C080910003909101030E941009A1
:1008D000E8CF80910003909101030E942F09C8C0C6
:1008E00080910003909101030E944A09D1C0809138
:1008F0000003909101030E946509D3CF809100030A
:10090000909101030E949009B3C0809100039091DF
:1009100001030E94BB09BCC08091000390910103B8
:100920000E94450EBECF80910003909101030E946A
:10093000E8099EC080910003909101030E94150A6E
:10094000A7C080910003909101030E94400AA9CFA3
:1009500080910003909101030E946B0A89C08091ED
:100960000003909101030E94A30A92C080910003AA
:10097000909101030E94DB0A94CF80910003909133
:1009800001030E94130B74C0809100039091010336
:100990000E944B0B7DC080910003909101030E9447
:1009A000830B7FCF802F8053803250F4803114F03E
:1009B0008051806F992787FD9095EB81FC81D5C18F
:1009C000802F80558032B0F4182F803114F01051F0
:1009D000106F80910003909101030E94C10761157F
:1009E00071058105910509F011E0812F992787FD97
:1009F0009095AEC1602F6057603238F4809100034B
:100A0000909101030E94BB0B33C0802F8059883026
:100A1000B0F4802F90E087709070843091051CF0C6
:100A200004978C6F9F6FAC01662757FD6095762FFA
:100A300080910003909101030E94AD0729C0802F8F
:100A40008859883048F40770809100039091010321
:100A5000602F0E94400D25CF802F805A883060F48F
:100A600007708091000390910103602F0E94A30DF5
:100A70008B819C8101969EC1802F885A883060F4BA
:100A800007708091000390910103602F0E94F10D87
:100A9000EB81FC8131966BC1003B08F408C2093D33
:100AA00009F4AEC00A3D40F5043B09F472C0053BB1
:100AB00080F4013B09F445C0023B20F4003B09F0FF
:100AC000E2C15DC0023B09F446C0033B09F0DBC153
:100AD0004CC0053D09F481C0063D38F40F3B09F4D4
:100AE00061C0043D09F0CFC167C0073D09F488C06B
:100AF000083D09F0C8C1A1C00E3D09F4CAC00F3DB0
:100B000068F40B3D09F4C5C00B3D08F496C00C3DDC
:100B100009F476C00D3D09F0B6C18FC0033E09F45B
:100B200004C1043E38F4003E09F4F8C0013E09F067
:100B3000AAC113C1073E09F41DC10F3F09F0A3C1AB
:100B40003CC18091000390910103EB81FC816181A4
:100B50000E94A30D91C18091000390910103EB814C
:100B6000FC8161810E94F10D87C180910003909109
:100B7000010341E050E060E070E00E94AD07809129
:100B8000000390910103EB81FC8161810E94400D83
:100B900073C180910003909101034FEF5FEF6FEFFE
:100BA0007FEFEBCF8091000390910103EB81FC81FB
:100BB00061810E94260C60C1EB81FC814181552737
:100BC00047FD50954E0F5F1F662757FD6095762FA6
:100BD00080910003909101032DC0EB81FC819180F5
:100BE0008824428150E0482959294E0F5F1F66270B
:100BF00057FD6095762F809100039091010342C0CC
:100C0000EB81FC818181093D19F4482F20E002C06D
:100C1000282F40E08091000390910103093D31F4B9
:100C2000552747FD5095652F752F04C0422F50E082
:100C300060E070E00E94AD071FC1EB81FC81818103
:100C400092810A3D49F4782E6624292F30E0262926
:100C5000372940E050E008C0582E4424492F50E086
:100C60004429552920E030E0809100039091010350
:100C70000A3D31F4A901662757FD6095762F02C021
:100C800060E070E00E94AD072B813C812D5F3F4FFB
:100C9000F7C02B813C812F5F3F4FF9013196DF0177
:100CA00011967D010894E11CF11CB180AA24A501D4
:100CB000662757FD6095762F4070607070701196B2
:100CC0008C9190E0A0E0B0E0482B592B6A2B7B2B55
:100CD000EB81FC81D180CC24C601AA2797FDA09589
:100CE000BA2F8070A070B070F901018110E020E08F
:100CF00030E0802B912BA22BB32BDC019927882786
:100D0000482B592B6A2B7B2B809100039091010378
:100D10000E94AD0797012F5F3F4FB2C0EB81FC816E
:100D20008181992787FD909520C080910003909143
:100D300001030E94C107611571058105910511F03C
:100D400082E003C0EB81FC818181992787FD90952A
:100D50002B813C81280F391F93C0EB81FC813180AE
:100D60002224828190E082299329E80FF91FFC83D5
:100D7000EB839DC0EB81FC81F181FA831982EB81C9
:100D8000FC81028110E029813A81022B132B3396DA
:100D9000AF01662757FD6095762F3397FC83EB8371
:100DA00080910003909101030E94AD078B819C818B
:100DB000800F911F9C838B837AC0EB81FC81918192
:100DC000892F8058883008F057C0892F90E08F70A5
:100DD00090708330910589F1843091054CF4813015
:100DE0009105C1F082309105FCF4892B51F044C08B
:100DF00086309105B1F187309105E1F10597E1F574
:100E000025C080910003909101030E94C1070E94B8
:100E1000BC0332C080910003909101030E94C1077E
:100E2000862F0E94C50328C0809100039091010382
:100E30000E94C1070E94CE031FC0809100039091C1
:100E400001030E94C1070E94D70316C080910003CE
:100E5000909101030E94C107DC01CB010E94E003D5
:100E60000BC080910003909101030E94C1070E9472
:100E7000E90302C00E94F2032B813C812E5F3F4FA9
:100E80003C832B8314C08EE992E00E94E003602F24
:100E900070E080E090E00E94E90387EA92E00E941F
:100EA000E0030E94F20380E090E00E94AC10EB812E
:100EB000FC810081002309F0B5CC0F900F900F90BA
:100EC0000F90CF91DF911F910F91FF90EF90DF90E6
:100ED000CF90BF90AF909F908F907F906F905F90DA
:100EE0004F903F902F9008951092FC021092FD02B7
:100EF0001092FE021092FF0280E20E948A079093F5
:100F00000103809300030E94F507909303038093ED
:100F100002030895982F882339F08FEF809385037B
:100F2000809384039093860384E093E0089508956A
:100F3000FC01EF57FF4F2081332727FD30952F5FAE
:100F40003F4F442737FD4095542FB901CA010895FA
:100F5000FC01EE57FF4F80810895DC01AF57BF4F72
:100F6000EC91EF5FEC93FF27E7FDF095EE0FFF1F8D
:100F7000EE0FFF1FE80FF91F4083518362837383D5
:100F80000895DC01AF57BF4F2C91E22FFF27E7FDFB
:100F9000F095EE0FFF1FEE0FFF1FE80FF91F6081A6
:100FA00071818281938121502C93089520E030E05B
:100FB00040E050E0FC01EF57FF4F80818F3F21F46C
:100FC00021E030E040E050E0B901CA010895FC01A1
:100FD0009093880380938703EF57FF4F80818F5F43
:100FE0008093890387E893E00895FC019093880338
:100FF00080938703EF57FF4F80818F5F8093890332
:1010000087E893E008950895FC012281215022830E
:10101000332727FD3095432F532F2095309540954A
:101020005095222757FD2395332744275527B9018B
:10103000CA010895FC01A081B1818281992787FDB1
:101040009095880F991F880F991FA80FB91F6C9151
:1010500011967C91119712968C91129713969C91F0
:101060000895FC01A081B181AF57BF4F8C918F5F74
:1010700082830895FC01EF57FF4F8081E158F040D3
:10108000992787FD9095880F991F880F991FE80F62
:10109000F91F60817181828193810895BC016F572E
:1010A0007F4FFB01A081EA2FFF27E7FDF095EE0FB0
:1010B000FF1FEE0FFF1FE80FF91F208131814281D2
:1010C0005381AF5FFB01A083BB27A7FDB095AA0F9B
:1010D000BB1FAA0FBB1FA80FB91F2D933D934D93A4
:1010E0005C9313970895FC01EF57FF4F8081E158FF
:1010F000F040992787FD9095880F991F880F991FB9
:10110000E80FF91F80819181A281B381809590952C
:10111000A095B09580839183A283B3830895DC0169
:10112000AF57BF4F6C91E62FFF27E7FDF095EE0F0D
:10113000FF1FEE0FFF1FE80FF91F20813181428151
:101140005381E62FE150EC93FF27E7FDF095EE0F7A
:10115000FF1FEE0FFF1FE80FF91F80819181A28111
:10116000B38182239323A423B52380839183A28315
:10117000B3830895DC01AF57BF4F6C91E62FFF2773
:10118000E7FDF095EE0FFF1FEE0FFF1FE80FF91FB1
:101190002081318142815381E62FE150EC93FF277A
:1011A000E7FDF095EE0FFF1FEE0FFF1FE80FF91F91
:1011B00080819181A281B381822B932BA42BB52BAB
:1011C00080839183A283B3830895DC01AF57BF4F1F
:1011D0006C91E62FFF27E7FDF095EE0FFF1FEE0F56
:1011E000FF1FE80FF91F2081318142815381E62FD3
:1011F000E150EC93FF27E7FDF095EE0FFF1FEE0F98
:10120000FF1FE80FF91F80819181A281B38182279E
:101210009327A427B52780839183A283B38308955E
:10122000FC01EF57FF4F8081E158F040992787FD7F
:101230009095880F991F880F991FE80FF91F8081DB
:101240009181A281B381B095A095909581959F4F92
:10125000AF4FBF4F80839183A283B3830895FC0176
:10126000EF57FF4F8081E158F040992787FD909517
:10127000880F991F880F991FE80FF91F80819181AE
:10128000A281B3810196A11DB11D80839183A283A8
:10129000B3830895FC01EF57FF4F8081E158F04080
:1012A000992787FD9095880F991F880F991FE80F40
:1012B000F91F80819181A281B3810197A109B109B0
:1012C00080839183A283B3830895DC01AF57BF4F1E
:1012D0006C91E62FFF27E7FDF095EE0FFF1FEE0F55
:1012E000FF1FE80FF91F2081318142815381E62FD2
:1012F000E150EC93FF27E7FDF095EE0FFF1FEE0F97
:10130000FF1FE80FF91F80819181A281B381820FB5
:10131000931FA41FB51F80839183A283B383089575
:10132000DC01AF57BF4F6C91E62FFF27E7FDF0952B
:10133000EE0FFF1FEE0FFF1FE80FF91F2081318115
:1013400042815381E62FE150EC93FF27E7FDF095B2
:10135000EE0FFF1FEE0FFF1FE80FF91F8081918135
:10136000A281B381821B930BA40BB50B8083918365
:10137000A283B3830895CF93DF93DC01AF57BF4FB0
:101380006C91E62FFF27E7FDF095EE0FFF1FEE0FA4
:10139000FF1FE80FF91F2081318142815381615085
:1013A0006C93C62FDD27C7FDD095CC0FDD1FCC0F6A
:1013B000DD1FC80FD91F688179818A819B810E94B6
:1013C000B80E688379838A839B83DF91CF910895D8
:1013D000CF93DF93DC01AF57BF4F6C91E62FFF2710
:1013E000E7FDF095EE0FFF1FEE0FFF1FE80FF91F4F
:1013F000208131814281538161506C93C62FDD275A
:10140000C7FDD095CC0FDD1FCC0FDD1FC80FD91F36
:10141000688179818A819B810E94F90E6883798332
:101420008A839B83DF91CF910895DC01AF57BF4F33
:101430003C91E32FFF27E7FDF095EE0FFF1FEE0F26
:10144000FF1FE80FF91F2081E32FE150EC93FF27E6
:10145000E7FDF095EE0FFF1FEE0FFF1FE80FF91FDE
:1014600080819181A281B38104C0880F991FAA1F36
:10147000BB1F2A95D2F780839183A283B3830895FB
:10148000DC01AF57BF4F3C91E32FFF27E7FDF095FD
:10149000EE0FFF1FEE0FFF1FE80FF91F2081E32F54
:1014A000E150EC93FF27E7FDF095EE0FFF1FEE0FE5
:1014B000FF1FE80FF91F80819181A281B38104C0D1
:1014C000B595A795979587952A95D2F780839183AF
:1014D000A283B38308950F931F93DC01AF57BF4FCF
:1014E0002C91E22FFF27E7FDF095EE0FFF1FEE0F87
:1014F000FF1FE80FF91F40815181628173812150E4
:101500002C93E22FFF27E7FDF095EE0FFF1FEE0F64
:10151000FF1FE80FF91F00E010E020E030E08081BD
:101520009181A281B38184179507A607B70721F49B
:1015300001E010E020E030E0008311832283338358
:101540001F910F9108950F931F93DC01AF57BF4F69
:101550002C91E22FFF27E7FDF095EE0FFF1FEE0F16
:10156000FF1FE80FF91F4081518162817381215073
:101570002C93E22FFF27E7FDF095EE0FFF1FEE0FF4
:10158000FF1FE80FF91F00E010E020E030E080814D
:101590009181A281B38184179507A607B70721F02F
:1015A00001E010E020E030E00083118322833383E8
:1015B0001F910F9108950F931F93DC01AF57BF4FF9
:1015C0002C91E22FFF27E7FDF095EE0FFF1FEE0FA6
:1015D000FF1FE80FF91F4081518162817381215003
:1015E0002C93E22FFF27E7FDF095EE0FFF1FEE0F84
:1015F000FF1FE80FF91F00E010E020E030E08081DD
:101600009181A281B38184179507A607B70724F4B7
:1016100001E010E020E030E0008311832283338377
:101620001F910F9108950F931F93DC01AF57BF4F88
:101630002C91E22FFF27E7FDF095EE0FFF1FEE0F35
:10164000FF1FE80FF91F4081518162817381215092
:101650002C93E22FFF27E7FDF095EE0FFF1FEE0F13
:10166000FF1FE80FF91F00E010E020E030E080816C
:101670009181A281B381481759076A077B0724F437
:1016800001E010E020E030E0008311832283338307
:101690001F910F9108950F931F93DC01AF57BF4F18
:1016A0002C91E22FFF27E7FDF095EE0FFF1FEE0FC5
:1016B000FF1FE80FF91F4081518162817381215022
:1016C0002C93E22FFF27E7FDF095EE0FFF1FEE0FA3
:1016D000FF1FE80FF91F00E010E020E030E08081FC
:1016E0009181A281B381481759076A077B0724F0CB
:1016F00001E010E020E030E0008311832283338397
:101700001F910F9108950F931F93DC01AF57BF4FA7
:101710002C91E22FFF27E7FDF095EE0FFF1FEE0F54
:10172000FF1FE80FF91F40815181628173812150B1
:101730002C93E22FFF27E7FDF095EE0FFF1FEE0F32
:10174000FF1FE80FF91F00E010E020E030E080818B
:101750009181A281B38184179507A607B70724F06A
:1017600001E010E020E030E0008311832283338326
:101770001F910F910895CF92DF92EF92FF920F93F6
:101780001F93AC01862F837011E8C12ED12CC40E9B
:10179000D51ED6012C91E22FFF27E7FDF095EE0F25
:1017A000FF1FEE0FFF1FE40FF51FE080F1800281A5
:1017B0001381382F320FE32FFF27E7FDF095EE0F4F
:1017C000FF1FEE0FFF1FE40FF51F262F220F220F22
:1017D0002074660F6871262B822B90E0A0E0B0E0A9
:1017E00080839183A283B3833F5FE32FFF27E7FDCD
:1017F000F095EE0FFF1FEE0FFF1FE40FF51FE082C5
:10180000F182028313833F5FF6013083E32FFF27CA
:10181000E7FDF095EE0FFF1FEE0FFF1FE40FF51F22
:1018200040585F4FDA018C91992787FD9095A92F39
:10183000B92F80839183A283B383FA0130831F91F0
:101840000F91FF90EF90DF90CF900895CF92DF92AD
:10185000EF92FF920F931F939C01862F877071E880
:10186000C72ED12CC20ED31ED6014C91E42FFF27D8
:10187000E7FDF095EE0FFF1FEE0FFF1FE20FF31FC6
:10188000E080F18002811381480FE42FFF27E7FDFC
:10189000F095EE0FFF1FEE0FFF1FE20FF31F6877AB
:1018A000862B90E0A0E0B0E080839183A283B38395
:1018B0004F5FE42FFF27E7FDF095EE0FFF1FEE0FC0
:1018C000FF1FE20FF31FE082F182028313834F5F59
:1018D000F6014083E42FFF27E7FDF095EE0FFF1F91
:1018E000EE0FFF1FE20FF31F20583F4FD9018C91DD
:1018F000992787FD9095A92FB92F80839183A28383
:10190000B383F90140831F910F91FF90EF90DF9017
:10191000CF9008958F929F92AF92BF92CF92DF9215
:10192000EF92FF921F93CF93DF93EC01C058DF4FEC
:10193000E881C058D040FF27E7FDF0953297EE0FC1
:10194000FF1FEE0FFF1FEC0FFD1F2081822F8295DE
:1019500086958695837090E0A0E0B0E0122F1695F2
:10196000169516951770277051E0852E912CA12C95
:10197000B12C88229922AA22BB2280FD05C040E01A
:1019800050E060E070E014C0DE01AF57BF4F8C91B3
:10199000E82FFF27E7FDF095EE0FFF1FEE0FFF1F6B
:1019A000EC0FFD1F408151816281738181508C93C6
:1019B000DE01AF57BF4F9C91E92FFF27E7FDF09560
:1019C000EE0FFF1FEE0FFF1FEC0FFD1F8081C058B1
:1019D000DF4F8883C058D0409150E92FFF27E7FDA3
:1019E000F095EE0FFF1FEE0FFF1FEC0FFD1FC080E5
:1019F000D180E280F380812F820F392F381B325043
:101A00003C93822F90E0810F911D089714F0321BB8
:101A10003C9381149104A104B10499F0DE01AF5705
:101A2000BF4FEC91EF5FEC93FF27E7FDF095EE0FD2
:101A3000FF1FEE0FFF1FEC0FFD1F408351836283DA
:101A40007383DE01AF57BF4FEC91EF5FEC93FF273D
:101A5000E7FDF095EE0FFF1FEE0FFF1FEC0FFD1FD0
:101A6000C082D182E282F382DF91CF911F91FF90F9
:101A7000EF90DF90CF90BF90AF909F908F900895A0
:101A8000EF92FF921F93CF93DF93EC01462FC05844
:101A9000DF4F8881C058D040682F772767FD709549
:101AA000FB013297EE0FFF1FEE0FFF1FEC0FFD1F24
:101AB0008081382F3695369536953770282F2770C8
:101AC000822F90E0830F911D08972CF0822F841BAA
:101AD0008E5F820F03C0822F841B8E5F830F681B73
:101AE0007109660F771F660F771F6C0F7D1FFB0153
:101AF00080819181A281B38131E8E32EF12CEC0E3B
:101B0000FD1EF7011081E12FFF27E7FDF095EE0F95
:101B1000FF1FEE0FFF1FEC0FFD1F2081318142815F
:101B200053811150F7011083820F931FA41FB51F1B
:101B3000FB0180839183A283B383DF91CF911F91B7
:101B4000FF90EF900895CF93DF93EC01C058DF4FE3
:101B50008881C058D040A82FBB27A7FDB095FD01B4
:101B60003297EE0FFF1FEE0FFF1FEC0FFD1F80815E
:101B7000382F3695369536953770282F2770822F57
:101B800090E0830F911D089734F0822F861B682FF9
:101B90006E5F620F03C0261B622F6E5F630FA61B72
:101BA000B109AA0FBB1FAA0FBB1FAC0FBD1F2D9100
:101BB0003D914D915C91DE01AF57BF4FEC91EF5FCE
:101BC000EC93FF27E7FDF095EE0FFF1FEE0FFF1FD1
:101BD000EC0FFD1F2083318342835383DF91CF912C
:101BE00008950F931F93CF93DF93EC01C058DF4FFD
:101BF0008881C058D040082F112707FD1095F801A3
:101C00003297EE0FFF1FEE0FFF1FEC0FFD1F8081BD
:101C1000382F3695369536953770282F2770822FB6
:101C200090E0830F911D089734F0822F861B682F58
:101C30006E5F620F03C0261B622F6E5F630FDE01B3
:101C4000AF57BF4F8C91E82FFF27E7FDF095EE0FC0
:101C5000FF1FEE0FFF1FEC0FFD1F2081318142811E
:101C6000538181508C93061B1109000F111F000F27
:101C7000111F0C0F1D1FF8012083318342835383F2
:101C8000DF91CF911F910F9108950F931F93BC0186
:101C9000FC01EF57FF4F8081A82FBB27A7FDB09510
:101CA000AA0FBB1FAA0FBB1FA60FB71F2D913D91F7
:101CB0004D915C91082F015000832115310541059C
:101CC000510529F485EC92E00E94E00315C011272C
:101CD00007FD1095000F111F000F111F060F171F92
:101CE000F80160817181828193810E94F90EF8016F
:101CF00020833183428353831F910F910895EF9284
:101D0000FF920F931F93CF93DF93EC01E881F9814A
:101D1000EF57FF4F80818F5F8A838BE50E94C50359
:101D200017C0E881F981992787FD9095880F991F41
:101D3000880F991FE80FF91FE080F180028113815D
:101D400087ED92E00E94E003C801B7010E94E90319
:101D50008A8181508A8387FFE4CF89ED92E00E94D7
:101D6000E003DF91CF911F910F91FF90EF900895C5
:101D7000629FD001739FF001829FE00DF11D649F6F
:101D8000E00DF11D929FF00D839FF00D749FF00DFB
:101D9000659FF00D9927729FB00DE11DF91F639F9C
:101DA000B00DE11DF91FBD01CF0111240895A1E27D
:101DB0001A2EAA1BBB1BFD010DC0AA1FBB1FEE1FC5
:101DC000FF1FA217B307E407F50720F0A21BB30B10
:101DD000E40BF50B661F771F881F991F1A9469F78C
:101DE00060957095809590959B01AC01BD01CF01E8
:101DF000089597FB092E05260ED057FD04D0D7DF96
:101E00000AD0001C38F450954095309521953F4FED
:101E10004F4F5F4F0895F6F79095809570956195B7
:101E20007F4F8F4F9F4F0895FB01DC010D900020E5
:101E3000E9F7119701900D920020E1F70895FB0159
:101E4000DC018D91019080190110D9F3990B08954F
:101E5000FB01DC0101900D920020E1F70895FC01E7
:101E600081E090E00190061609F4CF010020D1F73F
:101E700001970895FC01838187FF24C080918E170C
:101E800090918F178E179F0721F410928F17109241
:101E90008E1780919017909191178E179F0721F4BC
:101EA000109291171092901780919217909193171A
:101EB0008E179F0721F41092931710929217CF015B
:101EC0000E94541080E090E00895CF93DF93EC01DE
:101ED0004B8140FF1AC046FF0AC04F7B4B838E8167
:101EE0009F8101969F838E838A81282F2BC042FF7A
:101EF00013C0E881F9818081282F332727FD309591
:101F00002115310529F440624B832FEF3FEF1BC0B1
:101F10003196F983E88311C0EA85FB85CE010995E6
:101F20009C0197FF0AC09B812F5F3F4F11F080E219
:101F300001C080E1892B8B83E8CF8E819F81019640
:101F40009F838E8330E0C901DF91CF910895CF93B5
:101F5000DF93BC018230910510F462E070E0A09143
:101F60009617B0919717ED01E0E0F0E040E050E007
:101F700021C0888199818617970769F48A819B819E
:101F8000309719F09383828304C0909397178093BE
:101F90009617FE0134C06817790738F441155105CA
:101FA00019F08417950708F4AC01FE018A819B8122
:101FB0009C01E9012097E9F641155105A9F1CA01F3
:101FC000861B970B049708F4BA01E0E0F0E02AC002
:101FD0008D919C91119784179507F9F464177507F3
:101FE00081F412968D919C911397309719F09383F9
:101FF000828304C09093971780939617FD013296C1
:102000004FC0CA01861B970BFD01E80FF91F6193B2
:10201000719302978D939C9343C0FD0182819381BC
:102020009C01D9011097A1F6809194179091951772
:10203000892B41F48091DE029091DF0290939517F5
:10204000809394174091E0025091E10241155105AF
:1020500041F44DB75EB78091DC029091DD02481BE0
:10206000590B209194173091951724173507B0F428
:10207000CA01821B930B8617970780F0AB014E5F56
:102080005F4F8417950750F0420F531F50939517D9
:1020900040939417F9016193719302C0E0E0F0E07E
:1020A000CF01DF91CF910895CF93DF93009709F48B
:1020B00050C0EC0122971B821A82A0919617B09112
:1020C0009717109709F140E050E0AC17BD0708F1F1
:1020D000BB83AA83FE0121913191E20FF31FAE175A
:1020E000BF0779F48D919C911197280F391F2E5FAE
:1020F0003F4F3983288312968D919C9113979B8330
:102100008A834115510571F4D0939717C0939617A0
:1021100020C012968D919C911397AD01009711F0FC
:10212000DC01D3CFFA01D383C28321913191E20F35
:10213000F31FCE17DF0769F488819981280F391FB3
:102140002E5F3F4FFA01318320838A819B819383E5
:0C2150008283DF91CF910895F894FFCFB7
:10215C00417474656D70740A009300A2000401F060
:10216C0000AA00DC00B7000A55736167653A2000CD
:10217C00636D00204F7074696F6E733F203C66690D
:10218C006C652E6578653E0A000A202020202020F0
:10219C002020202D762020202020202020202044AC
:1021AC006973706C617920746865207665727369E7
:1021BC006F6E20616E6420657869742E000A202091
:1021CC00202020202020202D3F202D68656C7020A1
:1021DC00202020446973706C6179206F7074696F72
:1021EC006E7320616E6420657869742E0A00002D70
:1021FC003F002D68656C70002D7600436D2056698C
:10220C00727475616C204D616368696E6520002085
:10221C0076302E312E30302E313130316120002885
:10222C0057696E33322900436F707972696768742D
:10223C002028632920323030312D323032302020AA
:10224C004D696368656C206465204368616D706CD2
:10225C0061696E006578650020646F6573206E6F30
:10226C00742065786973742E0A00457865637574FB
:10227C0061626C652066696C6520746F6F206269A1
:10228C0067202873686F756C64206265203C3D2064
:10229C0000206279746573292E0A004572726F7280
:1022AC003A204D75737420686176652061206669EB
:1022BC006C65207769746820272E65786527206502
:1022CC007874656E73696F6E2E0A004572726F7248
:1022DC003A204D75737420686176652061206669BB
:1022EC006C6520746F206C6F61642E0A00004F7057
:1022FC00636F64653A2000206973207265736572A0
:10230C0076656420666F72206675747572652075CB
:10231C007365642E004469766973696F6E20627907
:10232C00207A65726F0A002000205D00200098174B
:02233C0000009F
:00000001FF
